{
  "abi": [
    {
      "inputs": [
        {
          "internalType": "string",
          "name": "_uri",
          "type": "string"
        },
        {
          "internalType": "address",
          "name": "_withdrawal",
          "type": "address"
        }
      ],
      "stateMutability": "nonpayable",
      "type": "constructor"
    },
    {
      "anonymous": false,
      "inputs": [
        {
          "indexed": true,
          "internalType": "address",
          "name": "account",
          "type": "address"
        },
        {
          "indexed": true,
          "internalType": "address",
          "name": "operator",
          "type": "address"
        },
        {
          "indexed": false,
          "internalType": "bool",
          "name": "approved",
          "type": "bool"
        }
      ],
      "name": "ApprovalForAll",
      "type": "event"
    },
    {
      "anonymous": false,
      "inputs": [
        {
          "indexed": true,
          "internalType": "address",
          "name": "previousOwner",
          "type": "address"
        },
        {
          "indexed": true,
          "internalType": "address",
          "name": "newOwner",
          "type": "address"
        }
      ],
      "name": "OwnershipTransferred",
      "type": "event"
    },
    {
      "anonymous": false,
      "inputs": [
        {
          "indexed": true,
          "internalType": "address",
          "name": "operator",
          "type": "address"
        },
        {
          "indexed": true,
          "internalType": "address",
          "name": "from",
          "type": "address"
        },
        {
          "indexed": true,
          "internalType": "address",
          "name": "to",
          "type": "address"
        },
        {
          "indexed": false,
          "internalType": "uint256[]",
          "name": "ids",
          "type": "uint256[]"
        },
        {
          "indexed": false,
          "internalType": "uint256[]",
          "name": "values",
          "type": "uint256[]"
        }
      ],
      "name": "TransferBatch",
      "type": "event"
    },
    {
      "anonymous": false,
      "inputs": [
        {
          "indexed": true,
          "internalType": "address",
          "name": "operator",
          "type": "address"
        },
        {
          "indexed": true,
          "internalType": "address",
          "name": "from",
          "type": "address"
        },
        {
          "indexed": true,
          "internalType": "address",
          "name": "to",
          "type": "address"
        },
        {
          "indexed": false,
          "internalType": "uint256",
          "name": "id",
          "type": "uint256"
        },
        {
          "indexed": false,
          "internalType": "uint256",
          "name": "value",
          "type": "uint256"
        }
      ],
      "name": "TransferSingle",
      "type": "event"
    },
    {
      "anonymous": false,
      "inputs": [
        {
          "indexed": false,
          "internalType": "string",
          "name": "value",
          "type": "string"
        },
        {
          "indexed": true,
          "internalType": "uint256",
          "name": "id",
          "type": "uint256"
        }
      ],
      "name": "URI",
      "type": "event"
    },
    {
      "inputs": [],
      "name": "MAX_SUPPLY",
      "outputs": [
        {
          "internalType": "uint256",
          "name": "",
          "type": "uint256"
        }
      ],
      "stateMutability": "view",
      "type": "function"
    },
    {
      "inputs": [
        {
          "internalType": "address",
          "name": "_user",
          "type": "address"
        },
        {
          "internalType": "uint256",
          "name": "_quantity",
          "type": "uint256"
        }
      ],
      "name": "airdrop",
      "outputs": [],
      "stateMutability": "nonpayable",
      "type": "function"
    },
    {
      "inputs": [],
      "name": "approvedMinter",
      "outputs": [
        {
          "internalType": "address",
          "name": "",
          "type": "address"
        }
      ],
      "stateMutability": "view",
      "type": "function"
    },
    {
      "inputs": [
        {
          "internalType": "address",
          "name": "account",
          "type": "address"
        },
        {
          "internalType": "uint256",
          "name": "id",
          "type": "uint256"
        }
      ],
      "name": "balanceOf",
      "outputs": [
        {
          "internalType": "uint256",
          "name": "",
          "type": "uint256"
        }
      ],
      "stateMutability": "view",
      "type": "function"
    },
    {
      "inputs": [
        {
          "internalType": "address[]",
          "name": "accounts",
          "type": "address[]"
        },
        {
          "internalType": "uint256[]",
          "name": "ids",
          "type": "uint256[]"
        }
      ],
      "name": "balanceOfBatch",
      "outputs": [
        {
          "internalType": "uint256[]",
          "name": "",
          "type": "uint256[]"
        }
      ],
      "stateMutability": "view",
      "type": "function"
    },
    {
      "inputs": [
        {
          "internalType": "uint256[]",
          "name": "_tokenIds",
          "type": "uint256[]"
        }
      ],
      "name": "burnForReward",
      "outputs": [],
      "stateMutability": "nonpayable",
      "type": "function"
    },
    {
      "inputs": [],
      "name": "burnedSupply",
      "outputs": [
        {
          "internalType": "uint256",
          "name": "",
          "type": "uint256"
        }
      ],
      "stateMutability": "view",
      "type": "function"
    },
    {
      "inputs": [],
      "name": "circulatingSupply",
      "outputs": [
        {
          "internalType": "uint256",
          "name": "",
          "type": "uint256"
        }
      ],
      "stateMutability": "view",
      "type": "function"
    },
    {
      "inputs": [],
      "name": "counter",
      "outputs": [
        {
          "internalType": "uint256",
          "name": "",
          "type": "uint256"
        }
      ],
      "stateMutability": "view",
      "type": "function"
    },
    {
      "inputs": [
        {
          "internalType": "address",
          "name": "_address",
          "type": "address"
        }
      ],
      "name": "getERC721BalanceOffChain",
      "outputs": [
        {
          "internalType": "uint256",
          "name": "",
          "type": "uint256"
        }
      ],
      "stateMutability": "view",
      "type": "function"
    },
    {
      "inputs": [],
      "name": "getOwnershipRecordOffChain",
      "outputs": [
        {
          "internalType": "address[100000000]",
          "name": "",
          "type": "address[100000000]"
        }
      ],
      "stateMutability": "view",
      "type": "function"
    },
    {
      "inputs": [
        {
          "internalType": "address",
          "name": "account",
          "type": "address"
        },
        {
          "internalType": "address",
          "name": "operator",
          "type": "address"
        }
      ],
      "name": "isApprovedForAll",
      "outputs": [
        {
          "internalType": "bool",
          "name": "",
          "type": "bool"
        }
      ],
      "stateMutability": "view",
      "type": "function"
    },
    {
      "inputs": [],
      "name": "maxCirculatingSupply",
      "outputs": [
        {
          "internalType": "uint256",
          "name": "",
          "type": "uint256"
        }
      ],
      "stateMutability": "view",
      "type": "function"
    },
    {
      "inputs": [
        {
          "internalType": "address",
          "name": "_user",
          "type": "address"
        },
        {
          "internalType": "uint256",
          "name": "_quantity",
          "type": "uint256"
        }
      ],
      "name": "mint",
      "outputs": [],
      "stateMutability": "nonpayable",
      "type": "function"
    },
    {
      "inputs": [],
      "name": "owner",
      "outputs": [
        {
          "internalType": "address",
          "name": "",
          "type": "address"
        }
      ],
      "stateMutability": "view",
      "type": "function"
    },
    {
      "inputs": [
        {
          "internalType": "uint256",
          "name": "id",
          "type": "uint256"
        }
      ],
      "name": "ownerOfERC721Like",
      "outputs": [
        {
          "internalType": "address",
          "name": "",
          "type": "address"
        }
      ],
      "stateMutability": "view",
      "type": "function"
    },
    {
      "inputs": [],
      "name": "paused",
      "outputs": [
        {
          "internalType": "bool",
          "name": "",
          "type": "bool"
        }
      ],
      "stateMutability": "view",
      "type": "function"
    },
    {
      "inputs": [],
      "name": "renounceOwnership",
      "outputs": [],
      "stateMutability": "nonpayable",
      "type": "function"
    },
    {
      "inputs": [
        {
          "internalType": "address",
          "name": "from",
          "type": "address"
        },
        {
          "internalType": "address",
          "name": "to",
          "type": "address"
        },
        {
          "internalType": "uint256[]",
          "name": "ids",
          "type": "uint256[]"
        },
        {
          "internalType": "uint256[]",
          "name": "amounts",
          "type": "uint256[]"
        },
        {
          "internalType": "bytes",
          "name": "data",
          "type": "bytes"
        }
      ],
      "name": "safeBatchTransferFrom",
      "outputs": [],
      "stateMutability": "nonpayable",
      "type": "function"
    },
    {
      "inputs": [
        {
          "internalType": "address",
          "name": "from",
          "type": "address"
        },
        {
          "internalType": "address",
          "name": "to",
          "type": "address"
        },
        {
          "internalType": "uint256",
          "name": "id",
          "type": "uint256"
        },
        {
          "internalType": "uint256",
          "name": "amount",
          "type": "uint256"
        },
        {
          "internalType": "bytes",
          "name": "data",
          "type": "bytes"
        }
      ],
      "name": "safeTransferFrom",
      "outputs": [],
      "stateMutability": "nonpayable",
      "type": "function"
    },
    {
      "inputs": [
        {
          "internalType": "address",
          "name": "operator",
          "type": "address"
        },
        {
          "internalType": "bool",
          "name": "approved",
          "type": "bool"
        }
      ],
      "name": "setApprovalForAll",
      "outputs": [],
      "stateMutability": "nonpayable",
      "type": "function"
    },
    {
      "inputs": [
        {
          "internalType": "address",
          "name": "_address",
          "type": "address"
        }
      ],
      "name": "setApprovedMinter",
      "outputs": [],
      "stateMutability": "nonpayable",
      "type": "function"
    },
    {
      "inputs": [
        {
          "internalType": "uint256",
          "name": "_supply",
          "type": "uint256"
        }
      ],
      "name": "setMaxCirculatingSupply",
      "outputs": [],
      "stateMutability": "nonpayable",
      "type": "function"
    },
    {
      "inputs": [
        {
          "internalType": "string",
          "name": "_uri",
          "type": "string"
        }
      ],
      "name": "setURI",
      "outputs": [],
      "stateMutability": "nonpayable",
      "type": "function"
    },
    {
      "inputs": [
        {
          "internalType": "address",
          "name": "_withdrawal",
          "type": "address"
        }
      ],
      "name": "setWithdrawalAddress",
      "outputs": [],
      "stateMutability": "nonpayable",
      "type": "function"
    },
    {
      "inputs": [
        {
          "internalType": "bytes4",
          "name": "interfaceId",
          "type": "bytes4"
        }
      ],
      "name": "supportsInterface",
      "outputs": [
        {
          "internalType": "bool",
          "name": "",
          "type": "bool"
        }
      ],
      "stateMutability": "view",
      "type": "function"
    },
    {
      "inputs": [],
      "name": "togglePaused",
      "outputs": [],
      "stateMutability": "nonpayable",
      "type": "function"
    },
    {
      "inputs": [
        {
          "internalType": "address",
          "name": "newOwner",
          "type": "address"
        }
      ],
      "name": "transferOwnership",
      "outputs": [],
      "stateMutability": "nonpayable",
      "type": "function"
    },
    {
      "inputs": [
        {
          "internalType": "uint256",
          "name": "",
          "type": "uint256"
        }
      ],
      "name": "uri",
      "outputs": [
        {
          "internalType": "string",
          "name": "",
          "type": "string"
        }
      ],
      "stateMutability": "view",
      "type": "function"
    },
    {
      "inputs": [],
      "name": "withdraw",
      "outputs": [],
      "stateMutability": "nonpayable",
      "type": "function"
    },
    {
      "inputs": [],
      "name": "withdrawalAddress",
      "outputs": [
        {
          "internalType": "address",
          "name": "",
          "type": "address"
        }
      ],
      "stateMutability": "view",
      "type": "function"
    }
  ],
  "bytecode": {
    "object": "0x60806040526105dc6305f5e1045560016305f5e107556305f5e109805460ff60a01b1916600160a01b1790553480156200003857600080fd5b50604051620028e8380380620028e88339810160408190526200005b91620001ef565b816200006781620000a5565b506200007333620000c1565b60016305f5e103556305f5e10880546001600160a01b0319166001600160a01b0392909216919091179055506200031c565b8051620000bd906305f5e10190602084019062000116565b5050565b6305f5e10280546001600160a01b038381166001600160a01b0319831681179093556040519116919082907f8be0079c531659141344cd1fd0a4f28419497f9722a3daafe3b4186f6b6457e090600090a35050565b8280546200012490620002e0565b90600052602060002090601f01602090048101928262000148576000855562000193565b82601f106200016357805160ff191683800117855562000193565b8280016001018555821562000193579182015b828111156200019357825182559160200191906001019062000176565b50620001a1929150620001a5565b5090565b5b80821115620001a15760008155600101620001a6565b634e487b7160e01b600052604160045260246000fd5b80516001600160a01b0381168114620001ea57600080fd5b919050565b600080604083850312156200020357600080fd5b82516001600160401b03808211156200021b57600080fd5b818501915085601f8301126200023057600080fd5b815181811115620002455762000245620001bc565b604051601f8201601f19908116603f01168101908382118183101715620002705762000270620001bc565b816040528281526020935088848487010111156200028d57600080fd5b600091505b82821015620002b1578482018401518183018501529083019062000292565b82821115620002c35760008484830101525b9550620002d5915050858201620001d2565b925050509250929050565b600181811c90821680620002f557607f821691505b6020821081036200031657634e487b7160e01b600052602260045260246000fd5b50919050565b6125bc806200032c6000396000f3fe608060405234801561001057600080fd5b50600436106101e45760003560e01c806356e695ed1161010f5780639358928b116100a2578063e985e9c511610071578063e985e9c514610402578063f242432a14610441578063f2bcd02214610454578063f2fde38b1461046a57600080fd5b80639358928b146103ba5780639be4f8b9146103c6578063a22cb465146103dc578063d9de462f146103ef57600080fd5b80638ba4cc3c116100de5780638ba4cc3c146103595780638da5cb5b1461036c5780638e4777891461039457806393044198146103a757600080fd5b806356e695ed146103195780635c975abb1461032e57806361bc221a14610345578063715018a61461035157600080fd5b8063333dce331161018757806340c10f191161015657806340c10f19146102c757806345c85e96146102da5780634e1273f4146102ed57806355d0a1d01461030d57600080fd5b8063333dce331461029857806336566f06146102a457806339f81d8b146102ac5780633ccfd60b146102bf57600080fd5b80630e89341c116101c35780630e89341c1461024757806321b8092e146102675780632eb2c2d61461027a57806332cb6b0c1461028d57600080fd5b8062fdd58e146101e957806301ffc9a71461020f57806302fe530514610232575b600080fd5b6101fc6101f7366004611c48565b61047d565b6040519081526020015b60405180910390f35b61022261021d366004611c88565b610585565b6040519015158152602001610206565b610245610240366004611cac565b6105d7565b005b61025a610255366004611d1e565b610647565b6040516102069190611d84565b610245610275366004611d97565b6106de565b610245610288366004611efe565b610730565b6101fc6305f5e10081565b6101fc6305f5e1045481565b6102456107c7565b6101fc6102ba366004611d97565b610818565b610245610880565b6102456102d5366004611c48565b610913565b6102456102e8366004611d1e565b610a7c565b6103006102fb366004611fa8565b610ab1565b60405161020691906120ae565b6101fc6305f5e1065481565b610321610bdb565b60405161020691906120c1565b6305f5e1095461022290600160a01b900460ff1681565b6101fc6305f5e1075481565b610245610c26565b610245610367366004611c48565b610c5f565b6305f5e102546001600160a01b03165b6040516001600160a01b039091168152602001610206565b61037c6103a2366004611d1e565b610d38565b6102456103b5366004611d97565b610e12565b6101fc6305f5e1055481565b6305f5e1095461037c906001600160a01b031681565b6102456103ea366004612101565b610e64565b6102456103fd36600461213d565b610e6f565b6102226104103660046121a0565b6001600160a01b0391821660009081526305f5e1006020908152604080832093909416825291909152205460ff1690565b61024561044f3660046121d3565b610fe8565b6305f5e1085461037c906001600160a01b031681565b610245610478366004611d97565b61106f565b60006001600160a01b0383166104ee5760405162461bcd60e51b815260206004820152602b60248201527f455243313135353a2062616c616e636520717565727920666f7220746865207a60448201526a65726f206164647265737360a81b60648201526084015b60405180910390fd5b6305f5e10082106105415760405162461bcd60e51b815260206004820152601c60248201527f45524331313535443a2069642065786365656473206d6178696d756d0000000060448201526064016104e5565b826001600160a01b03166000836305f5e100811061056157610561612238565b01546001600160a01b03161461057857600061057b565b60015b60ff169392505050565b60006001600160e01b03198216636cdb3d1360e11b14806105b657506001600160e01b031982166303a24d0760e21b145b806105d157506301ffc9a760e01b6001600160e01b03198316145b92915050565b6305f5e102546001600160a01b031633146106045760405162461bcd60e51b81526004016104e59061224e565b61064382828080601f01602080910402602001604051908101604052809392919081815260200183838082843760009201919091525061110a92505050565b5050565b60606305f5e101805461065990612283565b80601f016020809104026020016040519081016040528092919081815260200182805461068590612283565b80156106d25780601f106106a7576101008083540402835291602001916106d2565b820191906000526020600020905b8154815290600101906020018083116106b557829003601f168201915b50505050509050919050565b6305f5e102546001600160a01b0316331461070b5760405162461bcd60e51b81526004016104e59061224e565b6305f5e10880546001600160a01b0319166001600160a01b0392909216919091179055565b6001600160a01b03851633148061074c575061074c8533610410565b6107b35760405162461bcd60e51b815260206004820152603260248201527f455243313135353a207472616e736665722063616c6c6572206973206e6f74206044820152711bdddb995c881b9bdc88185c1c1c9bdd995960721b60648201526084016104e5565b6107c08585858585611120565b5050505050565b6305f5e102546001600160a01b031633146107f45760405162461bcd60e51b81526004016104e59061224e565b6305f5e109805460ff60a01b198116600160a01b9182900460ff1615909102179055565b600080805b6305f5e10081101561087957836001600160a01b03166000826305f5e100811061084957610849612238565b01546001600160a01b0316036108675781610863816122d3565b9250505b80610871816122d3565b91505061081d565b5092915050565b6305f5e102546001600160a01b031633146108ad5760405162461bcd60e51b81526004016104e59061224e565b6305f5e108546040516000916001600160a01b03169047908381818185875af1925050503d80600081146108fd576040519150601f19603f3d011682016040523d82523d6000602084013e610902565b606091505b505090508061091057600080fd5b50565b6305f5e10954600160a01b900460ff16156109625760405162461bcd60e51b815260206004820152600f60248201526e10d3d395149050d517d4105554d151608a1b60448201526064016104e5565b6305f5e109546001600160a01b031633146109b05760405162461bcd60e51b815260206004820152600e60248201526d1393d517d055551213d49256915160921b60448201526064016104e5565b6305f5e10454816305f5e105546109c791906122ec565b1115610a0b5760405162461bcd60e51b815260206004820152601360248201527214d5541413164e8813505617d4915050d21151606a1b60448201526064016104e5565b806305f5e1056000828254610a2091906122ec565b90915550600090505b81811015610a77576305f5e1078054610a65918591906000610a4a836122d3565b91905055600160405180602001604052806000815250611317565b80610a6f816122d3565b915050610a29565b505050565b6305f5e102546001600160a01b03163314610aa95760405162461bcd60e51b81526004016104e59061224e565b6305f5e10455565b60608151835114610b165760405162461bcd60e51b815260206004820152602960248201527f455243313135353a206163636f756e747320616e6420696473206c656e677468604482015268040dad2e6dac2e8c6d60bb1b60648201526084016104e5565b6000835167ffffffffffffffff811115610b3257610b32611db2565b604051908082528060200260200182016040528015610b5b578160200160208202803683370190505b50905060005b8451811015610bd357610ba6858281518110610b7f57610b7f612238565b6020026020010151858381518110610b9957610b99612238565b602002602001015161047d565b828281518110610bb857610bb8612238565b6020908102919091010152610bcc816122d3565b9050610b61565b509392505050565b610be3611b6f565b6040805163bebc2000810191829052906000906305f5e1009082845b81546001600160a01b03168152600190910190602001808311610bff575050505050905090565b6305f5e102546001600160a01b03163314610c535760405162461bcd60e51b81526004016104e59061224e565b610c5d60006114cf565b565b6305f5e102546001600160a01b03163314610c8c5760405162461bcd60e51b81526004016104e59061224e565b6305f5e10454816305f5e10554610ca391906122ec565b1115610ce75760405162461bcd60e51b815260206004820152601360248201527214d5541413164e8813505617d4915050d21151606a1b60448201526064016104e5565b806305f5e1056000828254610cfc91906122ec565b90915550600090505b81811015610a77576305f5e1078054610d26918591906000610a4a836122d3565b80610d30816122d3565b915050610d05565b60006305f5e1008210610d8d5760405162461bcd60e51b815260206004820152601c60248201527f45524331313535443a2069642065786365656473206d6178696d756d0000000060448201526064016104e5565b600080836305f5e1008110610da457610da4612238565b01546001600160a01b03169050806105d15760405162461bcd60e51b815260206004820152602b60248201527f45524331313535443a206f776e657220717565727920666f72206e6f6e65786960448201526a39ba32b73a103a37b5b2b760a91b60648201526084016104e5565b6305f5e102546001600160a01b03163314610e3f5760405162461bcd60e51b81526004016104e59061224e565b6305f5e10980546001600160a01b0319166001600160a01b0392909216919091179055565b610643338383611524565b60026305f5e1035403610ec45760405162461bcd60e51b815260206004820152601f60248201527f5265656e7472616e637947756172643a207265656e7472616e742063616c6c0060448201526064016104e5565b60026305f5e103556305f5e10954600160a01b900460ff1615610f1b5760405162461bcd60e51b815260206004820152600f60248201526e10d3d395149050d517d4105554d151608a1b60448201526064016104e5565b333214610f5f5760405162461bcd60e51b815260206004820152601260248201527110d05313115497d254d7d0d3d395149050d560721b60448201526064016104e5565b818190506305f5e1056000828254610f779190612304565b90915550506305f5e1068054829190600090610f949084906122ec565b90915550600090505b81811015610fdb57610fc933848484818110610fbb57610fbb612238565b905060200201356001611607565b80610fd3816122d3565b915050610f9d565b505060016305f5e1035550565b6001600160a01b03851633148061100457506110048533610410565b6110625760405162461bcd60e51b815260206004820152602960248201527f455243313135353a2063616c6c6572206973206e6f74206f776e6572206e6f7260448201526808185c1c1c9bdd995960ba1b60648201526084016104e5565b6107c085858585856117c2565b6305f5e102546001600160a01b0316331461109c5760405162461bcd60e51b81526004016104e59061224e565b6001600160a01b0381166111015760405162461bcd60e51b815260206004820152602660248201527f4f776e61626c653a206e6577206f776e657220697320746865207a65726f206160448201526564647265737360d01b60648201526084016104e5565b610910816114cf565b8051610643906305f5e101906020840190611b93565b81518351146111825760405162461bcd60e51b815260206004820152602860248201527f455243313135353a2069647320616e6420616d6f756e7473206c656e677468206044820152670dad2e6dac2e8c6d60c31b60648201526084016104e5565b6001600160a01b0384166111a85760405162461bcd60e51b81526004016104e59061231b565b3360005b84518110156112a95760008582815181106111c9576111c9612238565b60200260200101519050876001600160a01b03166000826305f5e10081106111f3576111f3612238565b01546001600160a01b03161480156112245750600285838151811061121a5761121a612238565b6020026020010151105b6112405760405162461bcd60e51b81526004016104e590612360565b84828151811061125257611252612238565b602002602001015160010361129857866000826305f5e100811061127857611278612238565b0180546001600160a01b0319166001600160a01b03929092169190911790555b506112a2816122d3565b90506111ac565b50846001600160a01b0316866001600160a01b0316826001600160a01b03167f4a39dc06d4c0dbc64b70af90fd698a233a518aa5d07e595d983b8c0526c8f7fb87876040516112f99291906123aa565b60405180910390a461130f81878787878761190e565b505050505050565b6001600160a01b0384166113775760405162461bcd60e51b815260206004820152602160248201527f455243313135353a206d696e7420746f20746865207a65726f206164647265736044820152607360f81b60648201526084016104e5565b600282106113c75760405162461bcd60e51b815260206004820152601860248201527f45524331313535443a206578636565647320737570706c79000000000000000060448201526064016104e5565b6305f5e10083106114115760405162461bcd60e51b8152602060048201526014602482015273115490cc4c4d4d510e881a5b9d985b1a59081a5960621b60448201526064016104e5565b33600061141d85611a69565b9050600061142a85611a69565b90508460010361146b57866000876305f5e100811061144b5761144b612238565b0180546001600160a01b0319166001600160a01b03929092169190911790555b60408051878152602081018790526001600160a01b03808a1692600092918716917fc3d58168c5ae7397731d063d5bbf3d657854427343f4c083240f7aacaa2d0f62910160405180910390a46114c683600089898989611ab4565b50505050505050565b6305f5e10280546001600160a01b038381166001600160a01b0319831681179093556040519116919082907f8be0079c531659141344cd1fd0a4f28419497f9722a3daafe3b4186f6b6457e090600090a35050565b816001600160a01b0316836001600160a01b0316036115975760405162461bcd60e51b815260206004820152602960248201527f455243313135353a2073657474696e6720617070726f76616c20737461747573604482015268103337b91039b2b63360b91b60648201526084016104e5565b6001600160a01b0383811660008181526305f5e1006020908152604080832094871680845294825291829020805460ff191686151590811790915591519182527f17307eab39ab6107e8899845ad3d59bd9653f200f220920489ca2b5937696c31910160405180910390a3505050565b6001600160a01b0383166116695760405162461bcd60e51b815260206004820152602360248201527f455243313135353a206275726e2066726f6d20746865207a65726f206164647260448201526265737360e81b60648201526084016104e5565b33600061167584611a69565b9050600061168284611a69565b6040805160208101909152600090529050856001600160a01b03166000866305f5e10081106116b3576116b3612238565b01546001600160a01b03161480156116cb5750600284105b6117235760405162461bcd60e51b8152602060048201526024808201527f455243313135353a206275726e20616d6f756e7420657863656564732062616c604482015263616e636560e01b60648201526084016104e5565b8360010361176257600080866305f5e100811061174257611742612238565b0180546001600160a01b0319166001600160a01b03929092169190911790555b60408051868152602081018690526000916001600160a01b0389811692908716917fc3d58168c5ae7397731d063d5bbf3d657854427343f4c083240f7aacaa2d0f62910160405180910390a460408051602081019091526000905261130f565b6001600160a01b0384166117e85760405162461bcd60e51b81526004016104e59061231b565b3360006117f485611a69565b9050600061180185611a69565b9050876001600160a01b03166000876305f5e100811061182357611823612238565b01546001600160a01b031614801561183b5750600285105b6118575760405162461bcd60e51b81526004016104e590612360565b8460010361189657866000876305f5e100811061187657611876612238565b0180546001600160a01b0319166001600160a01b03929092169190911790555b866001600160a01b0316886001600160a01b0316846001600160a01b03167fc3d58168c5ae7397731d063d5bbf3d657854427343f4c083240f7aacaa2d0f6289896040516118ee929190918252602082015260400190565b60405180910390a4611904838989898989611ab4565b5050505050505050565b6001600160a01b0384163b1561130f5760405163bc197c8160e01b81526001600160a01b0385169063bc197c819061195290899089908890889088906004016123d8565b6020604051808303816000875af192505050801561198d575060408051601f3d908101601f1916820190925261198a91810190612436565b60015b611a3957611999612453565b806308c379a0036119d257506119ad61246f565b806119b857506119d4565b8060405162461bcd60e51b81526004016104e59190611d84565b505b60405162461bcd60e51b815260206004820152603460248201527f455243313135353a207472616e7366657220746f206e6f6e20455243313135356044820152732932b1b2b4bb32b91034b6b83632b6b2b73a32b960611b60648201526084016104e5565b6001600160e01b0319811663bc197c8160e01b146114c65760405162461bcd60e51b81526004016104e5906124f9565b60408051600180825281830190925260609160009190602080830190803683370190505090508281600081518110611aa357611aa3612238565b602090810291909101015292915050565b6001600160a01b0384163b1561130f5760405163f23a6e6160e01b81526001600160a01b0385169063f23a6e6190611af89089908990889088908890600401612541565b6020604051808303816000875af1925050508015611b33575060408051601f3d908101601f19168201909252611b3091810190612436565b60015b611b3f57611999612453565b6001600160e01b0319811663f23a6e6160e01b146114c65760405162461bcd60e51b81526004016104e5906124f9565b6040518063bebc200001604052806305f5e100906020820280368337509192915050565b828054611b9f90612283565b90600052602060002090601f016020900481019282611bc15760008555611c07565b82601f10611bda57805160ff1916838001178555611c07565b82800160010185558215611c07579182015b82811115611c07578251825591602001919060010190611bec565b50611c13929150611c17565b5090565b5b80821115611c135760008155600101611c18565b80356001600160a01b0381168114611c4357600080fd5b919050565b60008060408385031215611c5b57600080fd5b611c6483611c2c565b946020939093013593505050565b6001600160e01b03198116811461091057600080fd5b600060208284031215611c9a57600080fd5b8135611ca581611c72565b9392505050565b60008060208385031215611cbf57600080fd5b823567ffffffffffffffff80821115611cd757600080fd5b818501915085601f830112611ceb57600080fd5b813581811115611cfa57600080fd5b866020828501011115611d0c57600080fd5b60209290920196919550909350505050565b600060208284031215611d3057600080fd5b5035919050565b6000815180845260005b81811015611d5d57602081850181015186830182015201611d41565b81811115611d6f576000602083870101525b50601f01601f19169290920160200192915050565b602081526000611ca56020830184611d37565b600060208284031215611da957600080fd5b611ca582611c2c565b634e487b7160e01b600052604160045260246000fd5b601f8201601f1916810167ffffffffffffffff81118282101715611dee57611dee611db2565b6040525050565b600067ffffffffffffffff821115611e0f57611e0f611db2565b5060051b60200190565b600082601f830112611e2a57600080fd5b81356020611e3782611df5565b604051611e448282611dc8565b83815260059390931b8501820192828101915086841115611e6457600080fd5b8286015b84811015611e7f5780358352918301918301611e68565b509695505050505050565b600082601f830112611e9b57600080fd5b813567ffffffffffffffff811115611eb557611eb5611db2565b604051611ecc601f8301601f191660200182611dc8565b818152846020838601011115611ee157600080fd5b816020850160208301376000918101602001919091529392505050565b600080600080600060a08688031215611f1657600080fd5b611f1f86611c2c565b9450611f2d60208701611c2c565b9350604086013567ffffffffffffffff80821115611f4a57600080fd5b611f5689838a01611e19565b94506060880135915080821115611f6c57600080fd5b611f7889838a01611e19565b93506080880135915080821115611f8e57600080fd5b50611f9b88828901611e8a565b9150509295509295909350565b60008060408385031215611fbb57600080fd5b823567ffffffffffffffff80821115611fd357600080fd5b818501915085601f830112611fe757600080fd5b81356020611ff482611df5565b6040516120018282611dc8565b83815260059390931b850182019282810191508984111561202157600080fd5b948201945b838610156120465761203786611c2c565b82529482019490820190612026565b9650508601359250508082111561205c57600080fd5b5061206985828601611e19565b9150509250929050565b600081518084526020808501945080840160005b838110156120a357815187529582019590820190600101612087565b509495945050505050565b602081526000611ca56020830184612073565b63bebc20008101818360005b6305f5e1008110156120f85781516001600160a01b03168352602092830192909101906001016120cd565b50505092915050565b6000806040838503121561211457600080fd5b61211d83611c2c565b91506020830135801515811461213257600080fd5b809150509250929050565b6000806020838503121561215057600080fd5b823567ffffffffffffffff8082111561216857600080fd5b818501915085601f83011261217c57600080fd5b81358181111561218b57600080fd5b8660208260051b8501011115611d0c57600080fd5b600080604083850312156121b357600080fd5b6121bc83611c2c565b91506121ca60208401611c2c565b90509250929050565b600080600080600060a086880312156121eb57600080fd5b6121f486611c2c565b945061220260208701611c2c565b93506040860135925060608601359150608086013567ffffffffffffffff81111561222c57600080fd5b611f9b88828901611e8a565b634e487b7160e01b600052603260045260246000fd5b6020808252818101527f4f776e61626c653a2063616c6c6572206973206e6f7420746865206f776e6572604082015260600190565b600181811c9082168061229757607f821691505b6020821081036122b757634e487b7160e01b600052602260045260246000fd5b50919050565b634e487b7160e01b600052601160045260246000fd5b6000600182016122e5576122e56122bd565b5060010190565b600082198211156122ff576122ff6122bd565b500190565b600082821015612316576123166122bd565b500390565b60208082526025908201527f455243313135353a207472616e7366657220746f20746865207a65726f206164604082015264647265737360d81b606082015260800190565b6020808252602a908201527f455243313135353a20696e73756666696369656e742062616c616e636520666f60408201526939103a3930b739b332b960b11b606082015260800190565b6040815260006123bd6040830185612073565b82810360208401526123cf8185612073565b95945050505050565b6001600160a01b0386811682528516602082015260a06040820181905260009061240490830186612073565b82810360608401526124168186612073565b9050828103608084015261242a8185611d37565b98975050505050505050565b60006020828403121561244857600080fd5b8151611ca581611c72565b600060033d111561246c5760046000803e5060005160e01c5b90565b600060443d101561247d5790565b6040516003193d81016004833e81513d67ffffffffffffffff81602484011181841117156124ad57505050505090565b82850191508151818111156124c55750505050505090565b843d87010160208285010111156124df5750505050505090565b6124ee60208286010187611dc8565b509095945050505050565b60208082526028908201527f455243313135353a204552433131353552656365697665722072656a656374656040820152676420746f6b656e7360c01b606082015260800190565b6001600160a01b03868116825285166020820152604081018490526060810183905260a06080820181905260009061257b90830184611d37565b97965050505050505056fea26469706673582212200e0b4447bdca9b31e6dbd9780a2a2c71fb24d3108f7abeabf56bef9c94da37bb64736f6c634300080d0033",
    "linkReferences": {}
  }
}