{
  "abi": [
    {
      "inputs": [
        {
          "internalType": "uint64",
          "name": "subscriptionId",
          "type": "uint64"
        }
      ],
      "stateMutability": "nonpayable",
      "type": "constructor"
    },
    {
      "inputs": [
        {
          "internalType": "address",
          "name": "have",
          "type": "address"
        },
        {
          "internalType": "address",
          "name": "want",
          "type": "address"
        }
      ],
      "name": "OnlyCoordinatorCanFulfill",
      "type": "error"
    },
    {
      "inputs": [
        {
          "internalType": "uint256",
          "name": "tokenId",
          "type": "uint256"
        }
      ],
      "name": "getNumber",
      "outputs": [
        {
          "internalType": "uint256",
          "name": "",
          "type": "uint256"
        }
      ],
      "stateMutability": "view",
      "type": "function"
    },
    {
      "inputs": [
        {
          "internalType": "uint256",
          "name": "requestId",
          "type": "uint256"
        },
        {
          "internalType": "uint256[]",
          "name": "randomWords",
          "type": "uint256[]"
        }
      ],
      "name": "rawFulfillRandomWords",
      "outputs": [],
      "stateMutability": "nonpayable",
      "type": "function"
    },
    {
      "inputs": [],
      "name": "requestRandomWords",
      "outputs": [],
      "stateMutability": "nonpayable",
      "type": "function"
    },
    {
      "inputs": [
        {
          "internalType": "uint256",
          "name": "",
          "type": "uint256"
        }
      ],
      "name": "s_randomWords",
      "outputs": [
        {
          "internalType": "uint256",
          "name": "",
          "type": "uint256"
        }
      ],
      "stateMutability": "view",
      "type": "function"
    },
    {
      "inputs": [],
      "name": "s_requestId",
      "outputs": [
        {
          "internalType": "uint256",
          "name": "",
          "type": "uint256"
        }
      ],
      "stateMutability": "view",
      "type": "function"
    },
    {
      "inputs": [
        {
          "internalType": "uint32",
          "name": "_limit",
          "type": "uint32"
        }
      ],
      "name": "setGasLimit",
      "outputs": [],
      "stateMutability": "nonpayable",
      "type": "function"
    },
    {
      "inputs": [
        {
          "internalType": "uint32",
          "name": "_num",
          "type": "uint32"
        }
      ],
      "name": "setNumWords",
      "outputs": [],
      "stateMutability": "nonpayable",
      "type": "function"
    }
  ],
  "bytecode": {
    "object": "0x600180546001600160a01b031916736168499c0cffcacd319c818142124b7a15e857ab1781557fd89b2bf150e3b9e13446986e571fb9cab24b13cea0a43ea20a6049a85cc807cc60025560038054660a000300030d406001600160501b03199091161790556101e060405260a081815260c082905260e08290526101008290526101208290526101408290526101608290526101808290526101a08290526101c0919091526100b290600490600a610130565b503480156100bf57600080fd5b506040516107723803806107728339810160408190526100de91610195565b6001546001600160a01b0316608081905260008054600680546001600160a01b031916331790556001600160401b03909316600160a01b026001600160e01b03199093169091179190911790556101c5565b828054828255906000526020600020908101928215610170579160200282015b82811115610170578251829060ff16905591602001919060010190610150565b5061017c929150610180565b5090565b5b8082111561017c5760008155600101610181565b6000602082840312156101a757600080fd5b81516001600160401b03811681146101be57600080fd5b9392505050565b60805161058b6101e7600039600081816101110152610153015261058b6000f3fe608060405234801561001057600080fd5b506004361061007d5760003560e01c8063e89e106a1161005b578063e89e106a146100b2578063f30c07d3146100cd578063f6eaffc8146100e0578063fc563658146100f357600080fd5b80631fe543e31461008257806352d84c6214610097578063e0c86289146100aa575b600080fd5b6100956100903660046103f4565b610106565b005b6100956100a53660046104be565b610192565b6100956101c5565b6100bb60055481565b60405190815260200160405180910390f35b6100956100db3660046104be565b61029c565b6100bb6100ee3660046104eb565b6102df565b6100bb6101013660046104eb565b610300565b336001600160a01b037f000000000000000000000000000000000000000000000000000000000000000016146101845760405163073e64fd60e21b81523360048201526001600160a01b037f000000000000000000000000000000000000000000000000000000000000000016602482015260440160405180910390fd5b61018e8282610366565b5050565b6006546001600160a01b031633146101a957600080fd5b6003805463ffffffff191663ffffffff92909216919091179055565b6006546001600160a01b031633146101dc57600080fd5b6000546002546003546040516305d3b1d360e41b81526004810192909252600160a01b830467ffffffffffffffff166024830152640100000000810461ffff16604483015263ffffffff808216606484015266010000000000009091041660848201526001600160a01b0390911690635d3b1d309060a4016020604051808303816000875af1158015610273573d6000803e3d6000fd5b505050506040513d601f19601f820116820180604052508101906102979190610504565b600555565b6006546001600160a01b031633146102b357600080fd5b6003805463ffffffff90921666010000000000000269ffffffff00000000000019909216919091179055565b600481815481106102ef57600080fd5b600091825260209091200154905081565b60006004806000815481106103175761031761051d565b90600052602060002001548360405160200161033d929190918252602082015260400190565b6040516020818303038152906040528051906020012060001c6103609190610533565b92915050565b805161037990600490602084019061037e565b505050565b8280548282559060005260206000209081019282156103b9579160200282015b828111156103b957825182559160200191906001019061039e565b506103c59291506103c9565b5090565b5b808211156103c557600081556001016103ca565b634e487b7160e01b600052604160045260246000fd5b6000806040838503121561040757600080fd5b8235915060208084013567ffffffffffffffff8082111561042757600080fd5b818601915086601f83011261043b57600080fd5b81358181111561044d5761044d6103de565b8060051b604051601f19603f83011681018181108582111715610472576104726103de565b60405291825284820192508381018501918983111561049057600080fd5b938501935b828510156104ae57843584529385019392850192610495565b8096505050505050509250929050565b6000602082840312156104d057600080fd5b813563ffffffff811681146104e457600080fd5b9392505050565b6000602082840312156104fd57600080fd5b5035919050565b60006020828403121561051657600080fd5b5051919050565b634e487b7160e01b600052603260045260246000fd5b60008261055057634e487b7160e01b600052601260045260246000fd5b50069056fea2646970667358221220997b6ce0db7afcea06f576940e0589899a3e7b83a34150ff43392f5ac7f2757e64736f6c634300080d0033",
    "linkReferences": {}
  }
}