{
  "abi": [
    {
      "inputs": [
        {
          "internalType": "string",
          "name": "uri_",
          "type": "string"
        }
      ],
      "stateMutability": "nonpayable",
      "type": "constructor"
    },
    {
      "anonymous": false,
      "inputs": [
        {
          "indexed": true,
          "internalType": "address",
          "name": "account",
          "type": "address"
        },
        {
          "indexed": true,
          "internalType": "address",
          "name": "operator",
          "type": "address"
        },
        {
          "indexed": false,
          "internalType": "bool",
          "name": "approved",
          "type": "bool"
        }
      ],
      "name": "ApprovalForAll",
      "type": "event"
    },
    {
      "anonymous": false,
      "inputs": [
        {
          "indexed": true,
          "internalType": "address",
          "name": "operator",
          "type": "address"
        },
        {
          "indexed": true,
          "internalType": "address",
          "name": "from",
          "type": "address"
        },
        {
          "indexed": true,
          "internalType": "address",
          "name": "to",
          "type": "address"
        },
        {
          "indexed": false,
          "internalType": "uint256[]",
          "name": "ids",
          "type": "uint256[]"
        },
        {
          "indexed": false,
          "internalType": "uint256[]",
          "name": "values",
          "type": "uint256[]"
        }
      ],
      "name": "TransferBatch",
      "type": "event"
    },
    {
      "anonymous": false,
      "inputs": [
        {
          "indexed": true,
          "internalType": "address",
          "name": "operator",
          "type": "address"
        },
        {
          "indexed": true,
          "internalType": "address",
          "name": "from",
          "type": "address"
        },
        {
          "indexed": true,
          "internalType": "address",
          "name": "to",
          "type": "address"
        },
        {
          "indexed": false,
          "internalType": "uint256",
          "name": "id",
          "type": "uint256"
        },
        {
          "indexed": false,
          "internalType": "uint256",
          "name": "value",
          "type": "uint256"
        }
      ],
      "name": "TransferSingle",
      "type": "event"
    },
    {
      "anonymous": false,
      "inputs": [
        {
          "indexed": false,
          "internalType": "string",
          "name": "value",
          "type": "string"
        },
        {
          "indexed": true,
          "internalType": "uint256",
          "name": "id",
          "type": "uint256"
        }
      ],
      "name": "URI",
      "type": "event"
    },
    {
      "inputs": [],
      "name": "MAX_SUPPLY",
      "outputs": [
        {
          "internalType": "uint256",
          "name": "",
          "type": "uint256"
        }
      ],
      "stateMutability": "view",
      "type": "function"
    },
    {
      "inputs": [
        {
          "internalType": "address",
          "name": "account",
          "type": "address"
        },
        {
          "internalType": "uint256",
          "name": "id",
          "type": "uint256"
        }
      ],
      "name": "balanceOf",
      "outputs": [
        {
          "internalType": "uint256",
          "name": "",
          "type": "uint256"
        }
      ],
      "stateMutability": "view",
      "type": "function"
    },
    {
      "inputs": [
        {
          "internalType": "address[]",
          "name": "accounts",
          "type": "address[]"
        },
        {
          "internalType": "uint256[]",
          "name": "ids",
          "type": "uint256[]"
        }
      ],
      "name": "balanceOfBatch",
      "outputs": [
        {
          "internalType": "uint256[]",
          "name": "",
          "type": "uint256[]"
        }
      ],
      "stateMutability": "view",
      "type": "function"
    },
    {
      "inputs": [
        {
          "internalType": "address",
          "name": "_address",
          "type": "address"
        }
      ],
      "name": "getERC721BalanceOffChain",
      "outputs": [
        {
          "internalType": "uint256",
          "name": "",
          "type": "uint256"
        }
      ],
      "stateMutability": "view",
      "type": "function"
    },
    {
      "inputs": [],
      "name": "getOwnershipRecordOffChain",
      "outputs": [
        {
          "internalType": "address[100000000]",
          "name": "",
          "type": "address[100000000]"
        }
      ],
      "stateMutability": "view",
      "type": "function"
    },
    {
      "inputs": [
        {
          "internalType": "address",
          "name": "account",
          "type": "address"
        },
        {
          "internalType": "address",
          "name": "operator",
          "type": "address"
        }
      ],
      "name": "isApprovedForAll",
      "outputs": [
        {
          "internalType": "bool",
          "name": "",
          "type": "bool"
        }
      ],
      "stateMutability": "view",
      "type": "function"
    },
    {
      "inputs": [
        {
          "internalType": "uint256",
          "name": "id",
          "type": "uint256"
        }
      ],
      "name": "ownerOfERC721Like",
      "outputs": [
        {
          "internalType": "address",
          "name": "",
          "type": "address"
        }
      ],
      "stateMutability": "view",
      "type": "function"
    },
    {
      "inputs": [
        {
          "internalType": "address",
          "name": "from",
          "type": "address"
        },
        {
          "internalType": "address",
          "name": "to",
          "type": "address"
        },
        {
          "internalType": "uint256[]",
          "name": "ids",
          "type": "uint256[]"
        },
        {
          "internalType": "uint256[]",
          "name": "amounts",
          "type": "uint256[]"
        },
        {
          "internalType": "bytes",
          "name": "data",
          "type": "bytes"
        }
      ],
      "name": "safeBatchTransferFrom",
      "outputs": [],
      "stateMutability": "nonpayable",
      "type": "function"
    },
    {
      "inputs": [
        {
          "internalType": "address",
          "name": "from",
          "type": "address"
        },
        {
          "internalType": "address",
          "name": "to",
          "type": "address"
        },
        {
          "internalType": "uint256",
          "name": "id",
          "type": "uint256"
        },
        {
          "internalType": "uint256",
          "name": "amount",
          "type": "uint256"
        },
        {
          "internalType": "bytes",
          "name": "data",
          "type": "bytes"
        }
      ],
      "name": "safeTransferFrom",
      "outputs": [],
      "stateMutability": "nonpayable",
      "type": "function"
    },
    {
      "inputs": [
        {
          "internalType": "address",
          "name": "operator",
          "type": "address"
        },
        {
          "internalType": "bool",
          "name": "approved",
          "type": "bool"
        }
      ],
      "name": "setApprovalForAll",
      "outputs": [],
      "stateMutability": "nonpayable",
      "type": "function"
    },
    {
      "inputs": [
        {
          "internalType": "bytes4",
          "name": "interfaceId",
          "type": "bytes4"
        }
      ],
      "name": "supportsInterface",
      "outputs": [
        {
          "internalType": "bool",
          "name": "",
          "type": "bool"
        }
      ],
      "stateMutability": "view",
      "type": "function"
    },
    {
      "inputs": [
        {
          "internalType": "uint256",
          "name": "",
          "type": "uint256"
        }
      ],
      "name": "uri",
      "outputs": [
        {
          "internalType": "string",
          "name": "",
          "type": "string"
        }
      ],
      "stateMutability": "view",
      "type": "function"
    }
  ],
  "bytecode": {
    "object": "0x60806040523480156200001157600080fd5b506040516200193a3803806200193a83398101604081905262000034916200011e565b6200003f8162000046565b5062000236565b80516200005e906305f5e10190602084019062000062565b5050565b8280546200007090620001fa565b90600052602060002090601f016020900481019282620000945760008555620000df565b82601f10620000af57805160ff1916838001178555620000df565b82800160010185558215620000df579182015b82811115620000df578251825591602001919060010190620000c2565b50620000ed929150620000f1565b5090565b5b80821115620000ed5760008155600101620000f2565b634e487b7160e01b600052604160045260246000fd5b600060208083850312156200013257600080fd5b82516001600160401b03808211156200014a57600080fd5b818501915085601f8301126200015f57600080fd5b81518181111562000174576200017462000108565b604051601f8201601f19908116603f011681019083821181831017156200019f576200019f62000108565b816040528281528886848701011115620001b857600080fd5b600093505b82841015620001dc5784840186015181850187015292850192620001bd565b82841115620001ee5760008684830101525b98975050505050505050565b600181811c908216806200020f57607f821691505b6020821081036200023057634e487b7160e01b600052602260045260246000fd5b50919050565b6116f480620002466000396000f3fe608060405234801561001057600080fd5b50600436106100b35760003560e01c80634e1273f4116100715780634e1273f41461015457806356e695ed146101745780638e47778914610189578063a22cb465146101b4578063e985e9c5146101c7578063f242432a1461020657600080fd5b8062fdd58e146100b857806301ffc9a7146100de5780630e89341c146101015780632eb2c2d61461012157806332cb6b0c1461013657806339f81d8b14610141575b600080fd5b6100cb6100c6366004610ebe565b610219565b6040519081526020015b60405180910390f35b6100f16100ec366004610f01565b610321565b60405190151581526020016100d5565b61011461010f366004610f25565b610373565b6040516100d59190610f8b565b61013461012f3660046110ea565b61040a565b005b6100cb6305f5e10081565b6100cb61014f366004611194565b6104a1565b6101676101623660046111af565b610509565b6040516100d591906112b5565b61017c610633565b6040516100d591906112c8565b61019c610197366004610f25565b61067e565b6040516001600160a01b0390911681526020016100d5565b6101346101c2366004611308565b610758565b6100f16101d5366004611344565b6001600160a01b0391821660009081526305f5e1006020908152604080832093909416825291909152205460ff1690565b610134610214366004611377565b610767565b60006001600160a01b03831661028a5760405162461bcd60e51b815260206004820152602b60248201527f455243313135353a2062616c616e636520717565727920666f7220746865207a60448201526a65726f206164647265737360a81b60648201526084015b60405180910390fd5b6305f5e10082106102dd5760405162461bcd60e51b815260206004820152601c60248201527f45524331313535443a2069642065786365656473206d6178696d756d000000006044820152606401610281565b826001600160a01b03166000836305f5e10081106102fd576102fd6113dc565b01546001600160a01b031614610314576000610317565b60015b60ff169392505050565b60006001600160e01b03198216636cdb3d1360e11b148061035257506001600160e01b031982166303a24d0760e21b145b8061036d57506301ffc9a760e01b6001600160e01b03198316145b92915050565b60606305f5e1018054610385906113f2565b80601f01602080910402602001604051908101604052809291908181526020018280546103b1906113f2565b80156103fe5780601f106103d3576101008083540402835291602001916103fe565b820191906000526020600020905b8154815290600101906020018083116103e157829003601f168201915b50505050509050919050565b6001600160a01b038516331480610426575061042685336101d5565b61048d5760405162461bcd60e51b815260206004820152603260248201527f455243313135353a207472616e736665722063616c6c6572206973206e6f74206044820152711bdddb995c881b9bdc88185c1c1c9bdd995960721b6064820152608401610281565b61049a85858585856107ee565b5050505050565b600080805b6305f5e10081101561050257836001600160a01b03166000826305f5e10081106104d2576104d26113dc565b01546001600160a01b0316036104f057816104ec8161142c565b9250505b806104fa8161142c565b9150506104a6565b5092915050565b6060815183511461056e5760405162461bcd60e51b815260206004820152602960248201527f455243313135353a206163636f756e747320616e6420696473206c656e677468604482015268040dad2e6dac2e8c6d60bb1b6064820152608401610281565b6000835167ffffffffffffffff81111561058a5761058a610f9e565b6040519080825280602002602001820160405280156105b3578160200160208202803683370190505b50905060005b845181101561062b576105fe8582815181106105d7576105d76113dc565b60200260200101518583815181106105f1576105f16113dc565b6020026020010151610219565b828281518110610610576106106113dc565b60209081029190910101526106248161142c565b90506105b9565b509392505050565b61063b610e7e565b6040805163bebc2000810191829052906000906305f5e1009082845b81546001600160a01b03168152600190910190602001808311610657575050505050905090565b60006305f5e10082106106d35760405162461bcd60e51b815260206004820152601c60248201527f45524331313535443a2069642065786365656473206d6178696d756d000000006044820152606401610281565b600080836305f5e10081106106ea576106ea6113dc565b01546001600160a01b031690508061036d5760405162461bcd60e51b815260206004820152602b60248201527f45524331313535443a206f776e657220717565727920666f72206e6f6e65786960448201526a39ba32b73a103a37b5b2b760a91b6064820152608401610281565b6107633383836109e5565b5050565b6001600160a01b038516331480610783575061078385336101d5565b6107e15760405162461bcd60e51b815260206004820152602960248201527f455243313135353a2063616c6c6572206973206e6f74206f776e6572206e6f7260448201526808185c1c1c9bdd995960ba1b6064820152608401610281565b61049a8585858585610ac8565b81518351146108505760405162461bcd60e51b815260206004820152602860248201527f455243313135353a2069647320616e6420616d6f756e7473206c656e677468206044820152670dad2e6dac2e8c6d60c31b6064820152608401610281565b6001600160a01b0384166108765760405162461bcd60e51b815260040161028190611453565b3360005b8451811015610977576000858281518110610897576108976113dc565b60200260200101519050876001600160a01b03166000826305f5e10081106108c1576108c16113dc565b01546001600160a01b03161480156108f2575060028583815181106108e8576108e86113dc565b6020026020010151105b61090e5760405162461bcd60e51b815260040161028190611498565b848281518110610920576109206113dc565b602002602001015160010361096657866000826305f5e1008110610946576109466113dc565b0180546001600160a01b0319166001600160a01b03929092169190911790555b506109708161142c565b905061087a565b50846001600160a01b0316866001600160a01b0316826001600160a01b03167f4a39dc06d4c0dbc64b70af90fd698a233a518aa5d07e595d983b8c0526c8f7fb87876040516109c79291906114e2565b60405180910390a46109dd818787878787610c14565b505050505050565b816001600160a01b0316836001600160a01b031603610a585760405162461bcd60e51b815260206004820152602960248201527f455243313135353a2073657474696e6720617070726f76616c20737461747573604482015268103337b91039b2b63360b91b6064820152608401610281565b6001600160a01b0383811660008181526305f5e1006020908152604080832094871680845294825291829020805460ff191686151590811790915591519182527f17307eab39ab6107e8899845ad3d59bd9653f200f220920489ca2b5937696c31910160405180910390a3505050565b6001600160a01b038416610aee5760405162461bcd60e51b815260040161028190611453565b336000610afa85610d78565b90506000610b0785610d78565b9050876001600160a01b03166000876305f5e1008110610b2957610b296113dc565b01546001600160a01b0316148015610b415750600285105b610b5d5760405162461bcd60e51b815260040161028190611498565b84600103610b9c57866000876305f5e1008110610b7c57610b7c6113dc565b0180546001600160a01b0319166001600160a01b03929092169190911790555b866001600160a01b0316886001600160a01b0316846001600160a01b03167fc3d58168c5ae7397731d063d5bbf3d657854427343f4c083240f7aacaa2d0f628989604051610bf4929190918252602082015260400190565b60405180910390a4610c0a838989898989610dc3565b5050505050505050565b6001600160a01b0384163b156109dd5760405163bc197c8160e01b81526001600160a01b0385169063bc197c8190610c589089908990889088908890600401611510565b6020604051808303816000875af1925050508015610c93575060408051601f3d908101601f19168201909252610c909181019061156e565b60015b610d3f57610c9f61158b565b806308c379a003610cd85750610cb36115a7565b80610cbe5750610cda565b8060405162461bcd60e51b81526004016102819190610f8b565b505b60405162461bcd60e51b815260206004820152603460248201527f455243313135353a207472616e7366657220746f206e6f6e20455243313135356044820152732932b1b2b4bb32b91034b6b83632b6b2b73a32b960611b6064820152608401610281565b6001600160e01b0319811663bc197c8160e01b14610d6f5760405162461bcd60e51b815260040161028190611631565b50505050505050565b60408051600180825281830190925260609160009190602080830190803683370190505090508281600081518110610db257610db26113dc565b602090810291909101015292915050565b6001600160a01b0384163b156109dd5760405163f23a6e6160e01b81526001600160a01b0385169063f23a6e6190610e079089908990889088908890600401611679565b6020604051808303816000875af1925050508015610e42575060408051601f3d908101601f19168201909252610e3f9181019061156e565b60015b610e4e57610c9f61158b565b6001600160e01b0319811663f23a6e6160e01b14610d6f5760405162461bcd60e51b815260040161028190611631565b6040518063bebc200001604052806305f5e100906020820280368337509192915050565b80356001600160a01b0381168114610eb957600080fd5b919050565b60008060408385031215610ed157600080fd5b610eda83610ea2565b946020939093013593505050565b6001600160e01b031981168114610efe57600080fd5b50565b600060208284031215610f1357600080fd5b8135610f1e81610ee8565b9392505050565b600060208284031215610f3757600080fd5b5035919050565b6000815180845260005b81811015610f6457602081850181015186830182015201610f48565b81811115610f76576000602083870101525b50601f01601f19169290920160200192915050565b602081526000610f1e6020830184610f3e565b634e487b7160e01b600052604160045260246000fd5b601f8201601f1916810167ffffffffffffffff81118282101715610fda57610fda610f9e565b6040525050565b600067ffffffffffffffff821115610ffb57610ffb610f9e565b5060051b60200190565b600082601f83011261101657600080fd5b8135602061102382610fe1565b6040516110308282610fb4565b83815260059390931b850182019282810191508684111561105057600080fd5b8286015b8481101561106b5780358352918301918301611054565b509695505050505050565b600082601f83011261108757600080fd5b813567ffffffffffffffff8111156110a1576110a1610f9e565b6040516110b8601f8301601f191660200182610fb4565b8181528460208386010111156110cd57600080fd5b816020850160208301376000918101602001919091529392505050565b600080600080600060a0868803121561110257600080fd5b61110b86610ea2565b945061111960208701610ea2565b9350604086013567ffffffffffffffff8082111561113657600080fd5b61114289838a01611005565b9450606088013591508082111561115857600080fd5b61116489838a01611005565b9350608088013591508082111561117a57600080fd5b5061118788828901611076565b9150509295509295909350565b6000602082840312156111a657600080fd5b610f1e82610ea2565b600080604083850312156111c257600080fd5b823567ffffffffffffffff808211156111da57600080fd5b818501915085601f8301126111ee57600080fd5b813560206111fb82610fe1565b6040516112088282610fb4565b83815260059390931b850182019282810191508984111561122857600080fd5b948201945b8386101561124d5761123e86610ea2565b8252948201949082019061122d565b9650508601359250508082111561126357600080fd5b5061127085828601611005565b9150509250929050565b600081518084526020808501945080840160005b838110156112aa5781518752958201959082019060010161128e565b509495945050505050565b602081526000610f1e602083018461127a565b63bebc20008101818360005b6305f5e1008110156112ff5781516001600160a01b03168352602092830192909101906001016112d4565b50505092915050565b6000806040838503121561131b57600080fd5b61132483610ea2565b91506020830135801515811461133957600080fd5b809150509250929050565b6000806040838503121561135757600080fd5b61136083610ea2565b915061136e60208401610ea2565b90509250929050565b600080600080600060a0868803121561138f57600080fd5b61139886610ea2565b94506113a660208701610ea2565b93506040860135925060608601359150608086013567ffffffffffffffff8111156113d057600080fd5b61118788828901611076565b634e487b7160e01b600052603260045260246000fd5b600181811c9082168061140657607f821691505b60208210810361142657634e487b7160e01b600052602260045260246000fd5b50919050565b60006001820161144c57634e487b7160e01b600052601160045260246000fd5b5060010190565b60208082526025908201527f455243313135353a207472616e7366657220746f20746865207a65726f206164604082015264647265737360d81b606082015260800190565b6020808252602a908201527f455243313135353a20696e73756666696369656e742062616c616e636520666f60408201526939103a3930b739b332b960b11b606082015260800190565b6040815260006114f5604083018561127a565b8281036020840152611507818561127a565b95945050505050565b6001600160a01b0386811682528516602082015260a06040820181905260009061153c9083018661127a565b828103606084015261154e818661127a565b905082810360808401526115628185610f3e565b98975050505050505050565b60006020828403121561158057600080fd5b8151610f1e81610ee8565b600060033d11156115a45760046000803e5060005160e01c5b90565b600060443d10156115b55790565b6040516003193d81016004833e81513d67ffffffffffffffff81602484011181841117156115e557505050505090565b82850191508151818111156115fd5750505050505090565b843d87010160208285010111156116175750505050505090565b61162660208286010187610fb4565b509095945050505050565b60208082526028908201527f455243313135353a204552433131353552656365697665722072656a656374656040820152676420746f6b656e7360c01b606082015260800190565b6001600160a01b03868116825285166020820152604081018490526060810183905260a0608082018190526000906116b390830184610f3e565b97965050505050505056fea264697066735822122096fef73625106c32696f7c36d71a5bdfe3c4184a82dca32c75a9ebe95237975464736f6c634300080d0033",
    "linkReferences": {}
  }
}