{
  "abi": [
    {
      "inputs": [
        {
          "internalType": "string",
          "name": "_uri",
          "type": "string"
        },
        {
          "internalType": "address",
          "name": "_withdrawal",
          "type": "address"
        }
      ],
      "stateMutability": "nonpayable",
      "type": "constructor"
    },
    {
      "anonymous": false,
      "inputs": [
        {
          "indexed": true,
          "internalType": "address",
          "name": "account",
          "type": "address"
        },
        {
          "indexed": true,
          "internalType": "address",
          "name": "operator",
          "type": "address"
        },
        {
          "indexed": false,
          "internalType": "bool",
          "name": "approved",
          "type": "bool"
        }
      ],
      "name": "ApprovalForAll",
      "type": "event"
    },
    {
      "anonymous": false,
      "inputs": [
        {
          "indexed": true,
          "internalType": "address",
          "name": "previousOwner",
          "type": "address"
        },
        {
          "indexed": true,
          "internalType": "address",
          "name": "newOwner",
          "type": "address"
        }
      ],
      "name": "OwnershipTransferred",
      "type": "event"
    },
    {
      "anonymous": false,
      "inputs": [
        {
          "indexed": true,
          "internalType": "address",
          "name": "operator",
          "type": "address"
        },
        {
          "indexed": true,
          "internalType": "address",
          "name": "from",
          "type": "address"
        },
        {
          "indexed": true,
          "internalType": "address",
          "name": "to",
          "type": "address"
        },
        {
          "indexed": false,
          "internalType": "uint256[]",
          "name": "ids",
          "type": "uint256[]"
        },
        {
          "indexed": false,
          "internalType": "uint256[]",
          "name": "values",
          "type": "uint256[]"
        }
      ],
      "name": "TransferBatch",
      "type": "event"
    },
    {
      "anonymous": false,
      "inputs": [
        {
          "indexed": true,
          "internalType": "address",
          "name": "operator",
          "type": "address"
        },
        {
          "indexed": true,
          "internalType": "address",
          "name": "from",
          "type": "address"
        },
        {
          "indexed": true,
          "internalType": "address",
          "name": "to",
          "type": "address"
        },
        {
          "indexed": false,
          "internalType": "uint256",
          "name": "id",
          "type": "uint256"
        },
        {
          "indexed": false,
          "internalType": "uint256",
          "name": "value",
          "type": "uint256"
        }
      ],
      "name": "TransferSingle",
      "type": "event"
    },
    {
      "anonymous": false,
      "inputs": [
        {
          "indexed": false,
          "internalType": "string",
          "name": "value",
          "type": "string"
        },
        {
          "indexed": true,
          "internalType": "uint256",
          "name": "id",
          "type": "uint256"
        }
      ],
      "name": "URI",
      "type": "event"
    },
    {
      "inputs": [],
      "name": "BBContract",
      "outputs": [
        {
          "internalType": "address",
          "name": "",
          "type": "address"
        }
      ],
      "stateMutability": "view",
      "type": "function"
    },
    {
      "inputs": [],
      "name": "MAX_SUPPLY",
      "outputs": [
        {
          "internalType": "uint256",
          "name": "",
          "type": "uint256"
        }
      ],
      "stateMutability": "view",
      "type": "function"
    },
    {
      "inputs": [
        {
          "internalType": "address",
          "name": "_user",
          "type": "address"
        },
        {
          "internalType": "uint256",
          "name": "_quantity",
          "type": "uint256"
        }
      ],
      "name": "airdrop",
      "outputs": [],
      "stateMutability": "nonpayable",
      "type": "function"
    },
    {
      "inputs": [
        {
          "internalType": "address",
          "name": "account",
          "type": "address"
        },
        {
          "internalType": "uint256",
          "name": "id",
          "type": "uint256"
        }
      ],
      "name": "balanceOf",
      "outputs": [
        {
          "internalType": "uint256",
          "name": "",
          "type": "uint256"
        }
      ],
      "stateMutability": "view",
      "type": "function"
    },
    {
      "inputs": [
        {
          "internalType": "address[]",
          "name": "accounts",
          "type": "address[]"
        },
        {
          "internalType": "uint256[]",
          "name": "ids",
          "type": "uint256[]"
        }
      ],
      "name": "balanceOfBatch",
      "outputs": [
        {
          "internalType": "uint256[]",
          "name": "",
          "type": "uint256[]"
        }
      ],
      "stateMutability": "view",
      "type": "function"
    },
    {
      "inputs": [
        {
          "internalType": "address",
          "name": "_user",
          "type": "address"
        },
        {
          "internalType": "uint256[]",
          "name": "_tokenIds",
          "type": "uint256[]"
        }
      ],
      "name": "burn",
      "outputs": [],
      "stateMutability": "nonpayable",
      "type": "function"
    },
    {
      "inputs": [],
      "name": "counter",
      "outputs": [
        {
          "internalType": "uint256",
          "name": "",
          "type": "uint256"
        }
      ],
      "stateMutability": "view",
      "type": "function"
    },
    {
      "inputs": [
        {
          "internalType": "address",
          "name": "_address",
          "type": "address"
        }
      ],
      "name": "getERC721BalanceOffChain",
      "outputs": [
        {
          "internalType": "uint256",
          "name": "",
          "type": "uint256"
        }
      ],
      "stateMutability": "view",
      "type": "function"
    },
    {
      "inputs": [],
      "name": "getOwnershipRecordOffChain",
      "outputs": [
        {
          "internalType": "address[100000000]",
          "name": "",
          "type": "address[100000000]"
        }
      ],
      "stateMutability": "view",
      "type": "function"
    },
    {
      "inputs": [
        {
          "internalType": "address",
          "name": "account",
          "type": "address"
        },
        {
          "internalType": "address",
          "name": "operator",
          "type": "address"
        }
      ],
      "name": "isApprovedForAll",
      "outputs": [
        {
          "internalType": "bool",
          "name": "",
          "type": "bool"
        }
      ],
      "stateMutability": "view",
      "type": "function"
    },
    {
      "inputs": [],
      "name": "maxMint",
      "outputs": [
        {
          "internalType": "uint256",
          "name": "",
          "type": "uint256"
        }
      ],
      "stateMutability": "view",
      "type": "function"
    },
    {
      "inputs": [],
      "name": "maxSupply",
      "outputs": [
        {
          "internalType": "uint256",
          "name": "",
          "type": "uint256"
        }
      ],
      "stateMutability": "view",
      "type": "function"
    },
    {
      "inputs": [
        {
          "internalType": "uint256",
          "name": "_quantity",
          "type": "uint256"
        }
      ],
      "name": "mint",
      "outputs": [],
      "stateMutability": "payable",
      "type": "function"
    },
    {
      "inputs": [],
      "name": "owner",
      "outputs": [
        {
          "internalType": "address",
          "name": "",
          "type": "address"
        }
      ],
      "stateMutability": "view",
      "type": "function"
    },
    {
      "inputs": [
        {
          "internalType": "uint256",
          "name": "id",
          "type": "uint256"
        }
      ],
      "name": "ownerOfERC721Like",
      "outputs": [
        {
          "internalType": "address",
          "name": "",
          "type": "address"
        }
      ],
      "stateMutability": "view",
      "type": "function"
    },
    {
      "inputs": [],
      "name": "price",
      "outputs": [
        {
          "internalType": "uint256",
          "name": "",
          "type": "uint256"
        }
      ],
      "stateMutability": "view",
      "type": "function"
    },
    {
      "inputs": [],
      "name": "renounceOwnership",
      "outputs": [],
      "stateMutability": "nonpayable",
      "type": "function"
    },
    {
      "inputs": [
        {
          "internalType": "address",
          "name": "from",
          "type": "address"
        },
        {
          "internalType": "address",
          "name": "to",
          "type": "address"
        },
        {
          "internalType": "uint256[]",
          "name": "ids",
          "type": "uint256[]"
        },
        {
          "internalType": "uint256[]",
          "name": "amounts",
          "type": "uint256[]"
        },
        {
          "internalType": "bytes",
          "name": "data",
          "type": "bytes"
        }
      ],
      "name": "safeBatchTransferFrom",
      "outputs": [],
      "stateMutability": "nonpayable",
      "type": "function"
    },
    {
      "inputs": [
        {
          "internalType": "address",
          "name": "from",
          "type": "address"
        },
        {
          "internalType": "address",
          "name": "to",
          "type": "address"
        },
        {
          "internalType": "uint256",
          "name": "id",
          "type": "uint256"
        },
        {
          "internalType": "uint256",
          "name": "amount",
          "type": "uint256"
        },
        {
          "internalType": "bytes",
          "name": "data",
          "type": "bytes"
        }
      ],
      "name": "safeTransferFrom",
      "outputs": [],
      "stateMutability": "nonpayable",
      "type": "function"
    },
    {
      "inputs": [],
      "name": "saleStarted",
      "outputs": [
        {
          "internalType": "bool",
          "name": "",
          "type": "bool"
        }
      ],
      "stateMutability": "view",
      "type": "function"
    },
    {
      "inputs": [
        {
          "internalType": "address",
          "name": "operator",
          "type": "address"
        },
        {
          "internalType": "bool",
          "name": "approved",
          "type": "bool"
        }
      ],
      "name": "setApprovalForAll",
      "outputs": [],
      "stateMutability": "nonpayable",
      "type": "function"
    },
    {
      "inputs": [
        {
          "internalType": "address",
          "name": "_address",
          "type": "address"
        }
      ],
      "name": "setBBContract",
      "outputs": [],
      "stateMutability": "nonpayable",
      "type": "function"
    },
    {
      "inputs": [
        {
          "internalType": "uint256",
          "name": "_supply",
          "type": "uint256"
        }
      ],
      "name": "setMaxSupply",
      "outputs": [],
      "stateMutability": "nonpayable",
      "type": "function"
    },
    {
      "inputs": [
        {
          "internalType": "uint256",
          "name": "_price",
          "type": "uint256"
        }
      ],
      "name": "setPrice",
      "outputs": [],
      "stateMutability": "nonpayable",
      "type": "function"
    },
    {
      "inputs": [
        {
          "internalType": "string",
          "name": "_uri",
          "type": "string"
        }
      ],
      "name": "setURI",
      "outputs": [],
      "stateMutability": "nonpayable",
      "type": "function"
    },
    {
      "inputs": [
        {
          "internalType": "address",
          "name": "_withdrawal",
          "type": "address"
        }
      ],
      "name": "setWithdrawalAddress",
      "outputs": [],
      "stateMutability": "nonpayable",
      "type": "function"
    },
    {
      "inputs": [
        {
          "internalType": "bytes4",
          "name": "interfaceId",
          "type": "bytes4"
        }
      ],
      "name": "supportsInterface",
      "outputs": [
        {
          "internalType": "bool",
          "name": "",
          "type": "bool"
        }
      ],
      "stateMutability": "view",
      "type": "function"
    },
    {
      "inputs": [],
      "name": "toggleSale",
      "outputs": [],
      "stateMutability": "nonpayable",
      "type": "function"
    },
    {
      "inputs": [],
      "name": "totalSupply",
      "outputs": [
        {
          "internalType": "uint256",
          "name": "",
          "type": "uint256"
        }
      ],
      "stateMutability": "view",
      "type": "function"
    },
    {
      "inputs": [
        {
          "internalType": "address",
          "name": "newOwner",
          "type": "address"
        }
      ],
      "name": "transferOwnership",
      "outputs": [],
      "stateMutability": "nonpayable",
      "type": "function"
    },
    {
      "inputs": [
        {
          "internalType": "uint256",
          "name": "",
          "type": "uint256"
        }
      ],
      "name": "uri",
      "outputs": [
        {
          "internalType": "string",
          "name": "",
          "type": "string"
        }
      ],
      "stateMutability": "view",
      "type": "function"
    },
    {
      "inputs": [],
      "name": "withdraw",
      "outputs": [],
      "stateMutability": "nonpayable",
      "type": "function"
    },
    {
      "inputs": [],
      "name": "withdrawalAddress",
      "outputs": [
        {
          "internalType": "address",
          "name": "",
          "type": "address"
        }
      ],
      "stateMutability": "view",
      "type": "function"
    }
  ],
  "bytecode": {
    "object": "0x60806040526103e86305f5e1045566038d7ea4c680006305f5e10555600a6305f5e1065560016305f5e107553480156200003857600080fd5b5060405162002bdb38038062002bdb8339810160408190526200005b91620001ef565b816200006781620000a5565b506200007333620000c1565b60016305f5e103556305f5e10880546001600160a01b0319166001600160a01b0392909216919091179055506200031c565b8051620000bd906305f5e10190602084019062000116565b5050565b6305f5e10280546001600160a01b038381166001600160a01b0319831681179093556040519116919082907f8be0079c531659141344cd1fd0a4f28419497f9722a3daafe3b4186f6b6457e090600090a35050565b8280546200012490620002e0565b90600052602060002090601f01602090048101928262000148576000855562000193565b82601f106200016357805160ff191683800117855562000193565b8280016001018555821562000193579182015b828111156200019357825182559160200191906001019062000176565b50620001a1929150620001a5565b5090565b5b80821115620001a15760008155600101620001a6565b634e487b7160e01b600052604160045260246000fd5b80516001600160a01b0381168114620001ea57600080fd5b919050565b600080604083850312156200020357600080fd5b82516001600160401b03808211156200021b57600080fd5b818501915085601f8301126200023057600080fd5b815181811115620002455762000245620001bc565b604051601f8201601f19908116603f01168101908382118183101715620002705762000270620001bc565b816040528281526020935088848487010111156200028d57600080fd5b600091505b82821015620002b1578482018401518183018501529083019062000292565b82821115620002c35760008484830101525b9550620002d5915050858201620001d2565b925050509250929050565b600181811c90821680620002f557607f821691505b6020821081036200031657634e487b7160e01b600052602260045260246000fd5b50919050565b6128af806200032c6000396000f3fe6080604052600436106101ed5760003560e01c80636f8b44b01161010d578063a035b1fe116100a0578063d5abeb011161006f578063d5abeb011461057d578063e985e9c514610596578063f242432a146105e2578063f2bcd02214610602578063f2fde38b1461062557600080fd5b8063a035b1fe14610511578063a0712d681461052a578063a22cb4651461053d578063ba36b92d1461055d57600080fd5b80638ba4cc3c116100dc5780638ba4cc3c146104905780638da5cb5b146104b05780638e477789146104d157806391b7f5ed146104f157600080fd5b80636f8b44b01461042d578063715018a61461044d5780637501f741146104625780637d8966e41461047b57600080fd5b806339f81d8b1161018557806356e695ed1161015457806356e695ed146103ae5780635c474f9e146103d057806361bc221a146103f457806367e477ec1461040d57600080fd5b806339f81d8b146103115780633ccfd60b146103315780633e015a6f146103465780634e1273f41461038157600080fd5b806318160ddd116101c157806318160ddd146102a457806321b8092e146102b95780632eb2c2d6146102d957806332cb6b0c146102f957600080fd5b8062fdd58e146101f257806301ffc9a71461022557806302fe5305146102555780630e89341c14610277575b600080fd5b3480156101fe57600080fd5b5061021261020d366004611f3b565b610645565b6040519081526020015b60405180910390f35b34801561023157600080fd5b50610245610240366004611f7b565b61074d565b604051901515815260200161021c565b34801561026157600080fd5b50610275610270366004611f9f565b61079f565b005b34801561028357600080fd5b50610297610292366004612011565b61080f565b60405161021c9190612077565b3480156102b057600080fd5b506102126108a6565b3480156102c557600080fd5b506102756102d436600461208a565b6108bf565b3480156102e557600080fd5b506102756102f43660046121f1565b610911565b34801561030557600080fd5b506102126305f5e10081565b34801561031d57600080fd5b5061021261032c36600461208a565b6109a8565b34801561033d57600080fd5b50610275610a10565b34801561035257600080fd5b506305f5e10954610369906001600160a01b031681565b6040516001600160a01b03909116815260200161021c565b34801561038d57600080fd5b506103a161039c36600461229b565b610aa3565b60405161021c91906123a1565b3480156103ba57600080fd5b506103c3610bcd565b60405161021c91906123b4565b3480156103dc57600080fd5b506305f5e1095461024590600160a01b900460ff1681565b34801561040057600080fd5b506102126305f5e1075481565b34801561041957600080fd5b5061027561042836600461208a565b610c18565b34801561043957600080fd5b50610275610448366004612011565b610c6a565b34801561045957600080fd5b50610275610d3d565b34801561046e57600080fd5b506102126305f5e1065481565b34801561048757600080fd5b50610275610d76565b34801561049c57600080fd5b506102756104ab366004611f3b565b610dc7565b3480156104bc57600080fd5b506305f5e102546001600160a01b0316610369565b3480156104dd57600080fd5b506103696104ec366004612011565b610eb0565b3480156104fd57600080fd5b5061027561050c366004612011565b610f8a565b34801561051d57600080fd5b506102126305f5e1055481565b610275610538366004612011565b610fbf565b34801561054957600080fd5b506102756105583660046123f4565b61123f565b34801561056957600080fd5b50610275610578366004612430565b61124a565b34801561058957600080fd5b506102126305f5e1045481565b3480156105a257600080fd5b506102456105b1366004612474565b6001600160a01b0391821660009081526305f5e1006020908152604080832093909416825291909152205460ff1690565b3480156105ee57600080fd5b506102756105fd3660046124a7565b6112db565b34801561060e57600080fd5b506305f5e10854610369906001600160a01b031681565b34801561063157600080fd5b5061027561064036600461208a565b611362565b60006001600160a01b0383166106b65760405162461bcd60e51b815260206004820152602b60248201527f455243313135353a2062616c616e636520717565727920666f7220746865207a60448201526a65726f206164647265737360a81b60648201526084015b60405180910390fd5b6305f5e10082106107095760405162461bcd60e51b815260206004820152601c60248201527f45524331313535443a2069642065786365656473206d6178696d756d0000000060448201526064016106ad565b826001600160a01b03166000836305f5e10081106107295761072961250c565b01546001600160a01b031614610740576000610743565b60015b60ff169392505050565b60006001600160e01b03198216636cdb3d1360e11b148061077e57506001600160e01b031982166303a24d0760e21b145b8061079957506301ffc9a760e01b6001600160e01b03198316145b92915050565b6305f5e102546001600160a01b031633146107cc5760405162461bcd60e51b81526004016106ad90612522565b61080b82828080601f0160208091040260200160405190810160405280939291908181526020018383808284376000920191909152506113fd92505050565b5050565b60606305f5e101805461082190612557565b80601f016020809104026020016040519081016040528092919081815260200182805461084d90612557565b801561089a5780601f1061086f5761010080835404028352916020019161089a565b820191906000526020600020905b81548152906001019060200180831161087d57829003601f168201915b50505050509050919050565b600060016305f5e107546108ba91906125a7565b905090565b6305f5e102546001600160a01b031633146108ec5760405162461bcd60e51b81526004016106ad90612522565b6305f5e10880546001600160a01b0319166001600160a01b0392909216919091179055565b6001600160a01b03851633148061092d575061092d85336105b1565b6109945760405162461bcd60e51b815260206004820152603260248201527f455243313135353a207472616e736665722063616c6c6572206973206e6f74206044820152711bdddb995c881b9bdc88185c1c1c9bdd995960721b60648201526084016106ad565b6109a18585858585611413565b5050505050565b600080805b6305f5e100811015610a0957836001600160a01b03166000826305f5e10081106109d9576109d961250c565b01546001600160a01b0316036109f757816109f3816125be565b9250505b80610a01816125be565b9150506109ad565b5092915050565b6305f5e102546001600160a01b03163314610a3d5760405162461bcd60e51b81526004016106ad90612522565b6305f5e108546040516000916001600160a01b03169047908381818185875af1925050503d8060008114610a8d576040519150601f19603f3d011682016040523d82523d6000602084013e610a92565b606091505b5050905080610aa057600080fd5b50565b60608151835114610b085760405162461bcd60e51b815260206004820152602960248201527f455243313135353a206163636f756e747320616e6420696473206c656e677468604482015268040dad2e6dac2e8c6d60bb1b60648201526084016106ad565b6000835167ffffffffffffffff811115610b2457610b246120a5565b604051908082528060200260200182016040528015610b4d578160200160208202803683370190505b50905060005b8451811015610bc557610b98858281518110610b7157610b7161250c565b6020026020010151858381518110610b8b57610b8b61250c565b6020026020010151610645565b828281518110610baa57610baa61250c565b6020908102919091010152610bbe816125be565b9050610b53565b509392505050565b610bd5611e62565b6040805163bebc2000810191829052906000906305f5e1009082845b81546001600160a01b03168152600190910190602001808311610bf1575050505050905090565b6305f5e102546001600160a01b03163314610c455760405162461bcd60e51b81526004016106ad90612522565b6305f5e10980546001600160a01b0319166001600160a01b0392909216919091179055565b6305f5e102546001600160a01b03163314610c975760405162461bcd60e51b81526004016106ad90612522565b6305f5e104548110610ce35760405162461bcd60e51b815260206004820152601560248201527443414e545f52414953455f4d41585f535550504c5960581b60448201526064016106ad565b60016305f5e10754610cf591906125a7565b811015610d355760405162461bcd60e51b815260206004820152600e60248201526d535550504c595f544f4f5f4c4f5760901b60448201526064016106ad565b6305f5e10455565b6305f5e102546001600160a01b03163314610d6a5760405162461bcd60e51b81526004016106ad90612522565b610d74600061160a565b565b6305f5e102546001600160a01b03163314610da35760405162461bcd60e51b81526004016106ad90612522565b6305f5e109805460ff60a01b198116600160a01b9182900460ff1615909102179055565b6305f5e102546001600160a01b03163314610df45760405162461bcd60e51b81526004016106ad90612522565b6305f5e10454610e059060016125d7565b816305f5e10754610e1691906125d7565b1115610e5a5760405162461bcd60e51b815260206004820152601360248201527214d5541413164e8813505617d4915050d21151606a1b60448201526064016106ad565b60005b81811015610eab576305f5e1078054610e99918591906000610e7e836125be565b9190505560016040518060200160405280600081525061165f565b80610ea3816125be565b915050610e5d565b505050565b60006305f5e1008210610f055760405162461bcd60e51b815260206004820152601c60248201527f45524331313535443a2069642065786365656473206d6178696d756d0000000060448201526064016106ad565b600080836305f5e1008110610f1c57610f1c61250c565b01546001600160a01b03169050806107995760405162461bcd60e51b815260206004820152602b60248201527f45524331313535443a206f776e657220717565727920666f72206e6f6e65786960448201526a39ba32b73a103a37b5b2b760a91b60648201526084016106ad565b6305f5e102546001600160a01b03163314610fb75760405162461bcd60e51b81526004016106ad90612522565b6305f5e10555565b60026305f5e10354036110145760405162461bcd60e51b815260206004820152601f60248201527f5265656e7472616e637947756172643a207265656e7472616e742063616c6c0060448201526064016106ad565b60026305f5e103553233146110605760405162461bcd60e51b815260206004820152601260248201527110d05313115497d254d7d0d3d395149050d560721b60448201526064016106ad565b6305f5e10954600160a01b900460ff166110b05760405162461bcd60e51b815260206004820152601160248201527014d053114e881393d517d4d51054951151607a1b60448201526064016106ad565b806305f5e105546110c191906125ef565b3410156111085760405162461bcd60e51b815260206004820152601560248201527450524943453a20414d4f554e545f544f4f5f4c4f5760581b60448201526064016106ad565b6305f5e106543360009081526305f5e10a602052604090205461112c9083906125d7565b111561116f5760405162461bcd60e51b81526020600482015260126024820152710a2aa829ca892a8b27440a89e9ebe90928e960731b60448201526064016106ad565b6305f5e104546111809060016125d7565b816305f5e1075461119191906125d7565b11156111d55760405162461bcd60e51b815260206004820152601360248201527214d5541413164e8813505617d4915050d21151606a1b60448201526064016106ad565b3360009081526305f5e10a6020526040812080548392906111f79084906125d7565b90915550600090505b81811015611233576305f5e1078054611221913391906000610e7e836125be565b8061122b816125be565b915050611200565b505060016305f5e10355565b61080b338383611817565b6305f5e109546001600160a01b031633146112985760405162461bcd60e51b815260206004820152600e60248201526d1393d517d055551213d49256915160921b60448201526064016106ad565b60005b8151811015610eab576112c9838383815181106112ba576112ba61250c565b602002602001015160016118fa565b806112d3816125be565b91505061129b565b6001600160a01b0385163314806112f757506112f785336105b1565b6113555760405162461bcd60e51b815260206004820152602960248201527f455243313135353a2063616c6c6572206973206e6f74206f776e6572206e6f7260448201526808185c1c1c9bdd995960ba1b60648201526084016106ad565b6109a18585858585611ab5565b6305f5e102546001600160a01b0316331461138f5760405162461bcd60e51b81526004016106ad90612522565b6001600160a01b0381166113f45760405162461bcd60e51b815260206004820152602660248201527f4f776e61626c653a206e6577206f776e657220697320746865207a65726f206160448201526564647265737360d01b60648201526084016106ad565b610aa08161160a565b805161080b906305f5e101906020840190611e86565b81518351146114755760405162461bcd60e51b815260206004820152602860248201527f455243313135353a2069647320616e6420616d6f756e7473206c656e677468206044820152670dad2e6dac2e8c6d60c31b60648201526084016106ad565b6001600160a01b03841661149b5760405162461bcd60e51b81526004016106ad9061260e565b3360005b845181101561159c5760008582815181106114bc576114bc61250c565b60200260200101519050876001600160a01b03166000826305f5e10081106114e6576114e661250c565b01546001600160a01b03161480156115175750600285838151811061150d5761150d61250c565b6020026020010151105b6115335760405162461bcd60e51b81526004016106ad90612653565b8482815181106115455761154561250c565b602002602001015160010361158b57866000826305f5e100811061156b5761156b61250c565b0180546001600160a01b0319166001600160a01b03929092169190911790555b50611595816125be565b905061149f565b50846001600160a01b0316866001600160a01b0316826001600160a01b03167f4a39dc06d4c0dbc64b70af90fd698a233a518aa5d07e595d983b8c0526c8f7fb87876040516115ec92919061269d565b60405180910390a4611602818787878787611c01565b505050505050565b6305f5e10280546001600160a01b038381166001600160a01b0319831681179093556040519116919082907f8be0079c531659141344cd1fd0a4f28419497f9722a3daafe3b4186f6b6457e090600090a35050565b6001600160a01b0384166116bf5760405162461bcd60e51b815260206004820152602160248201527f455243313135353a206d696e7420746f20746865207a65726f206164647265736044820152607360f81b60648201526084016106ad565b6002821061170f5760405162461bcd60e51b815260206004820152601860248201527f45524331313535443a206578636565647320737570706c79000000000000000060448201526064016106ad565b6305f5e10083106117595760405162461bcd60e51b8152602060048201526014602482015273115490cc4c4d4d510e881a5b9d985b1a59081a5960621b60448201526064016106ad565b33600061176585611d5c565b9050600061177285611d5c565b9050846001036117b357866000876305f5e10081106117935761179361250c565b0180546001600160a01b0319166001600160a01b03929092169190911790555b60408051878152602081018790526001600160a01b03808a1692600092918716917fc3d58168c5ae7397731d063d5bbf3d657854427343f4c083240f7aacaa2d0f62910160405180910390a461180e83600089898989611da7565b50505050505050565b816001600160a01b0316836001600160a01b03160361188a5760405162461bcd60e51b815260206004820152602960248201527f455243313135353a2073657474696e6720617070726f76616c20737461747573604482015268103337b91039b2b63360b91b60648201526084016106ad565b6001600160a01b0383811660008181526305f5e1006020908152604080832094871680845294825291829020805460ff191686151590811790915591519182527f17307eab39ab6107e8899845ad3d59bd9653f200f220920489ca2b5937696c31910160405180910390a3505050565b6001600160a01b03831661195c5760405162461bcd60e51b815260206004820152602360248201527f455243313135353a206275726e2066726f6d20746865207a65726f206164647260448201526265737360e81b60648201526084016106ad565b33600061196884611d5c565b9050600061197584611d5c565b6040805160208101909152600090529050856001600160a01b03166000866305f5e10081106119a6576119a661250c565b01546001600160a01b03161480156119be5750600284105b611a165760405162461bcd60e51b8152602060048201526024808201527f455243313135353a206275726e20616d6f756e7420657863656564732062616c604482015263616e636560e01b60648201526084016106ad565b83600103611a5557600080866305f5e1008110611a3557611a3561250c565b0180546001600160a01b0319166001600160a01b03929092169190911790555b60408051868152602081018690526000916001600160a01b0389811692908716917fc3d58168c5ae7397731d063d5bbf3d657854427343f4c083240f7aacaa2d0f62910160405180910390a4604080516020810190915260009052611602565b6001600160a01b038416611adb5760405162461bcd60e51b81526004016106ad9061260e565b336000611ae785611d5c565b90506000611af485611d5c565b9050876001600160a01b03166000876305f5e1008110611b1657611b1661250c565b01546001600160a01b0316148015611b2e5750600285105b611b4a5760405162461bcd60e51b81526004016106ad90612653565b84600103611b8957866000876305f5e1008110611b6957611b6961250c565b0180546001600160a01b0319166001600160a01b03929092169190911790555b866001600160a01b0316886001600160a01b0316846001600160a01b03167fc3d58168c5ae7397731d063d5bbf3d657854427343f4c083240f7aacaa2d0f628989604051611be1929190918252602082015260400190565b60405180910390a4611bf7838989898989611da7565b5050505050505050565b6001600160a01b0384163b156116025760405163bc197c8160e01b81526001600160a01b0385169063bc197c8190611c4590899089908890889088906004016126cb565b6020604051808303816000875af1925050508015611c80575060408051601f3d908101601f19168201909252611c7d91810190612729565b60015b611d2c57611c8c612746565b806308c379a003611cc55750611ca0612762565b80611cab5750611cc7565b8060405162461bcd60e51b81526004016106ad9190612077565b505b60405162461bcd60e51b815260206004820152603460248201527f455243313135353a207472616e7366657220746f206e6f6e20455243313135356044820152732932b1b2b4bb32b91034b6b83632b6b2b73a32b960611b60648201526084016106ad565b6001600160e01b0319811663bc197c8160e01b1461180e5760405162461bcd60e51b81526004016106ad906127ec565b60408051600180825281830190925260609160009190602080830190803683370190505090508281600081518110611d9657611d9661250c565b602090810291909101015292915050565b6001600160a01b0384163b156116025760405163f23a6e6160e01b81526001600160a01b0385169063f23a6e6190611deb9089908990889088908890600401612834565b6020604051808303816000875af1925050508015611e26575060408051601f3d908101601f19168201909252611e2391810190612729565b60015b611e3257611c8c612746565b6001600160e01b0319811663f23a6e6160e01b1461180e5760405162461bcd60e51b81526004016106ad906127ec565b6040518063bebc200001604052806305f5e100906020820280368337509192915050565b828054611e9290612557565b90600052602060002090601f016020900481019282611eb45760008555611efa565b82601f10611ecd57805160ff1916838001178555611efa565b82800160010185558215611efa579182015b82811115611efa578251825591602001919060010190611edf565b50611f06929150611f0a565b5090565b5b80821115611f065760008155600101611f0b565b80356001600160a01b0381168114611f3657600080fd5b919050565b60008060408385031215611f4e57600080fd5b611f5783611f1f565b946020939093013593505050565b6001600160e01b031981168114610aa057600080fd5b600060208284031215611f8d57600080fd5b8135611f9881611f65565b9392505050565b60008060208385031215611fb257600080fd5b823567ffffffffffffffff80821115611fca57600080fd5b818501915085601f830112611fde57600080fd5b813581811115611fed57600080fd5b866020828501011115611fff57600080fd5b60209290920196919550909350505050565b60006020828403121561202357600080fd5b5035919050565b6000815180845260005b8181101561205057602081850181015186830182015201612034565b81811115612062576000602083870101525b50601f01601f19169290920160200192915050565b602081526000611f98602083018461202a565b60006020828403121561209c57600080fd5b611f9882611f1f565b634e487b7160e01b600052604160045260246000fd5b601f8201601f1916810167ffffffffffffffff811182821017156120e1576120e16120a5565b6040525050565b600067ffffffffffffffff821115612102576121026120a5565b5060051b60200190565b600082601f83011261211d57600080fd5b8135602061212a826120e8565b60405161213782826120bb565b83815260059390931b850182019282810191508684111561215757600080fd5b8286015b84811015612172578035835291830191830161215b565b509695505050505050565b600082601f83011261218e57600080fd5b813567ffffffffffffffff8111156121a8576121a86120a5565b6040516121bf601f8301601f1916602001826120bb565b8181528460208386010111156121d457600080fd5b816020850160208301376000918101602001919091529392505050565b600080600080600060a0868803121561220957600080fd5b61221286611f1f565b945061222060208701611f1f565b9350604086013567ffffffffffffffff8082111561223d57600080fd5b61224989838a0161210c565b9450606088013591508082111561225f57600080fd5b61226b89838a0161210c565b9350608088013591508082111561228157600080fd5b5061228e8882890161217d565b9150509295509295909350565b600080604083850312156122ae57600080fd5b823567ffffffffffffffff808211156122c657600080fd5b818501915085601f8301126122da57600080fd5b813560206122e7826120e8565b6040516122f482826120bb565b83815260059390931b850182019282810191508984111561231457600080fd5b948201945b838610156123395761232a86611f1f565b82529482019490820190612319565b9650508601359250508082111561234f57600080fd5b5061235c8582860161210c565b9150509250929050565b600081518084526020808501945080840160005b838110156123965781518752958201959082019060010161237a565b509495945050505050565b602081526000611f986020830184612366565b63bebc20008101818360005b6305f5e1008110156123eb5781516001600160a01b03168352602092830192909101906001016123c0565b50505092915050565b6000806040838503121561240757600080fd5b61241083611f1f565b91506020830135801515811461242557600080fd5b809150509250929050565b6000806040838503121561244357600080fd5b61244c83611f1f565b9150602083013567ffffffffffffffff81111561246857600080fd5b61235c8582860161210c565b6000806040838503121561248757600080fd5b61249083611f1f565b915061249e60208401611f1f565b90509250929050565b600080600080600060a086880312156124bf57600080fd5b6124c886611f1f565b94506124d660208701611f1f565b93506040860135925060608601359150608086013567ffffffffffffffff81111561250057600080fd5b61228e8882890161217d565b634e487b7160e01b600052603260045260246000fd5b6020808252818101527f4f776e61626c653a2063616c6c6572206973206e6f7420746865206f776e6572604082015260600190565b600181811c9082168061256b57607f821691505b60208210810361258b57634e487b7160e01b600052602260045260246000fd5b50919050565b634e487b7160e01b600052601160045260246000fd5b6000828210156125b9576125b9612591565b500390565b6000600182016125d0576125d0612591565b5060010190565b600082198211156125ea576125ea612591565b500190565b600081600019048311821515161561260957612609612591565b500290565b60208082526025908201527f455243313135353a207472616e7366657220746f20746865207a65726f206164604082015264647265737360d81b606082015260800190565b6020808252602a908201527f455243313135353a20696e73756666696369656e742062616c616e636520666f60408201526939103a3930b739b332b960b11b606082015260800190565b6040815260006126b06040830185612366565b82810360208401526126c28185612366565b95945050505050565b6001600160a01b0386811682528516602082015260a0604082018190526000906126f790830186612366565b82810360608401526127098186612366565b9050828103608084015261271d818561202a565b98975050505050505050565b60006020828403121561273b57600080fd5b8151611f9881611f65565b600060033d111561275f5760046000803e5060005160e01c5b90565b600060443d10156127705790565b6040516003193d81016004833e81513d67ffffffffffffffff81602484011181841117156127a057505050505090565b82850191508151818111156127b85750505050505090565b843d87010160208285010111156127d25750505050505090565b6127e1602082860101876120bb565b509095945050505050565b60208082526028908201527f455243313135353a204552433131353552656365697665722072656a656374656040820152676420746f6b656e7360c01b606082015260800190565b6001600160a01b03868116825285166020820152604081018490526060810183905260a06080820181905260009061286e9083018461202a565b97965050505050505056fea2646970667358221220d07e4dcc06eb28ca753a4f6d4dc54a1ba13380a1cbcae860316248c1914f8de064736f6c634300080d0033",
    "linkReferences": {}
  }
}