{
  "abi": [
    {
      "inputs": [
        {
          "internalType": "address",
          "name": "_bambinoBox",
          "type": "address"
        },
        {
          "internalType": "address",
          "name": "_vialContract",
          "type": "address"
        },
        {
          "internalType": "uint64",
          "name": "_subscriptionId",
          "type": "uint64"
        }
      ],
      "stateMutability": "nonpayable",
      "type": "constructor"
    },
    {
      "inputs": [],
      "name": "CallerNotOwner",
      "type": "error"
    },
    {
      "inputs": [],
      "name": "CallerNotOwnerNorApproved",
      "type": "error"
    },
    {
      "inputs": [],
      "name": "ExceedsStakingLimit",
      "type": "error"
    },
    {
      "inputs": [],
      "name": "IncorrectOwner",
      "type": "error"
    },
    {
      "inputs": [],
      "name": "InvalidCycle",
      "type": "error"
    },
    {
      "inputs": [],
      "name": "MintMaxSupplyReached",
      "type": "error"
    },
    {
      "inputs": [],
      "name": "MintMaxWalletReached",
      "type": "error"
    },
    {
      "inputs": [],
      "name": "MintToZeroAddress",
      "type": "error"
    },
    {
      "inputs": [],
      "name": "MintZeroQuantity",
      "type": "error"
    },
    {
      "inputs": [],
      "name": "NonexistentToken",
      "type": "error"
    },
    {
      "inputs": [
        {
          "internalType": "address",
          "name": "have",
          "type": "address"
        },
        {
          "internalType": "address",
          "name": "want",
          "type": "address"
        }
      ],
      "name": "OnlyCoordinatorCanFulfill",
      "type": "error"
    },
    {
      "inputs": [],
      "name": "QueryForZeroAddress",
      "type": "error"
    },
    {
      "inputs": [],
      "name": "RewardAlreadyClaimed",
      "type": "error"
    },
    {
      "inputs": [],
      "name": "TokenIdUnstaked",
      "type": "error"
    },
    {
      "inputs": [],
      "name": "TransferFromIncorrectOwner",
      "type": "error"
    },
    {
      "inputs": [],
      "name": "TransferToNonERC721ReceiverImplementer",
      "type": "error"
    },
    {
      "inputs": [],
      "name": "TransferToZeroAddress",
      "type": "error"
    },
    {
      "anonymous": false,
      "inputs": [
        {
          "indexed": true,
          "internalType": "address",
          "name": "owner",
          "type": "address"
        },
        {
          "indexed": true,
          "internalType": "address",
          "name": "spender",
          "type": "address"
        },
        {
          "indexed": true,
          "internalType": "uint256",
          "name": "id",
          "type": "uint256"
        }
      ],
      "name": "Approval",
      "type": "event"
    },
    {
      "anonymous": false,
      "inputs": [
        {
          "indexed": true,
          "internalType": "address",
          "name": "owner",
          "type": "address"
        },
        {
          "indexed": true,
          "internalType": "address",
          "name": "operator",
          "type": "address"
        },
        {
          "indexed": false,
          "internalType": "bool",
          "name": "approved",
          "type": "bool"
        }
      ],
      "name": "ApprovalForAll",
      "type": "event"
    },
    {
      "anonymous": false,
      "inputs": [
        {
          "indexed": true,
          "internalType": "address",
          "name": "previousOwner",
          "type": "address"
        },
        {
          "indexed": true,
          "internalType": "address",
          "name": "newOwner",
          "type": "address"
        }
      ],
      "name": "OwnershipTransferred",
      "type": "event"
    },
    {
      "anonymous": false,
      "inputs": [
        {
          "indexed": true,
          "internalType": "address",
          "name": "from",
          "type": "address"
        },
        {
          "indexed": true,
          "internalType": "address",
          "name": "to",
          "type": "address"
        },
        {
          "indexed": true,
          "internalType": "uint256",
          "name": "id",
          "type": "uint256"
        }
      ],
      "name": "Transfer",
      "type": "event"
    },
    {
      "inputs": [
        {
          "internalType": "uint256",
          "name": "tokenId",
          "type": "uint256"
        }
      ],
      "name": "_tokenDataOf",
      "outputs": [
        {
          "components": [
            {
              "internalType": "address",
              "name": "owner",
              "type": "address"
            },
            {
              "internalType": "uint40",
              "name": "stakedAt",
              "type": "uint40"
            },
            {
              "internalType": "uint40",
              "name": "lastRewardedCycle",
              "type": "uint40"
            },
            {
              "internalType": "bool",
              "name": "staked",
              "type": "bool"
            },
            {
              "internalType": "bool",
              "name": "nextTokenDataSet",
              "type": "bool"
            }
          ],
          "internalType": "struct ERC721T.TokenData",
          "name": "tokenData",
          "type": "tuple"
        }
      ],
      "stateMutability": "view",
      "type": "function"
    },
    {
      "inputs": [
        {
          "internalType": "address",
          "name": "spender",
          "type": "address"
        },
        {
          "internalType": "uint256",
          "name": "tokenId",
          "type": "uint256"
        }
      ],
      "name": "approve",
      "outputs": [],
      "stateMutability": "nonpayable",
      "type": "function"
    },
    {
      "inputs": [
        {
          "internalType": "address",
          "name": "owner",
          "type": "address"
        }
      ],
      "name": "balanceOf",
      "outputs": [
        {
          "internalType": "uint256",
          "name": "",
          "type": "uint256"
        }
      ],
      "stateMutability": "view",
      "type": "function"
    },
    {
      "inputs": [],
      "name": "bambinoBox",
      "outputs": [
        {
          "internalType": "contract IBambinoBox",
          "name": "",
          "type": "address"
        }
      ],
      "stateMutability": "view",
      "type": "function"
    },
    {
      "inputs": [],
      "name": "baseURI",
      "outputs": [
        {
          "internalType": "string",
          "name": "",
          "type": "string"
        }
      ],
      "stateMutability": "view",
      "type": "function"
    },
    {
      "inputs": [
        {
          "internalType": "uint256[]",
          "name": "vialIds",
          "type": "uint256[]"
        }
      ],
      "name": "burnVialsForBambino",
      "outputs": [],
      "stateMutability": "nonpayable",
      "type": "function"
    },
    {
      "inputs": [],
      "name": "callbackGasLimit",
      "outputs": [
        {
          "internalType": "uint32",
          "name": "",
          "type": "uint32"
        }
      ],
      "stateMutability": "view",
      "type": "function"
    },
    {
      "inputs": [
        {
          "internalType": "uint256",
          "name": "tokenId",
          "type": "uint256"
        }
      ],
      "name": "claimReward",
      "outputs": [],
      "stateMutability": "payable",
      "type": "function"
    },
    {
      "inputs": [],
      "name": "currentCycle",
      "outputs": [
        {
          "internalType": "uint256",
          "name": "",
          "type": "uint256"
        }
      ],
      "stateMutability": "view",
      "type": "function"
    },
    {
      "inputs": [],
      "name": "cycleLength",
      "outputs": [
        {
          "internalType": "uint256",
          "name": "",
          "type": "uint256"
        }
      ],
      "stateMutability": "view",
      "type": "function"
    },
    {
      "inputs": [
        {
          "internalType": "uint256",
          "name": "",
          "type": "uint256"
        }
      ],
      "name": "getApproved",
      "outputs": [
        {
          "internalType": "address",
          "name": "",
          "type": "address"
        }
      ],
      "stateMutability": "view",
      "type": "function"
    },
    {
      "inputs": [
        {
          "internalType": "address",
          "name": "",
          "type": "address"
        },
        {
          "internalType": "address",
          "name": "",
          "type": "address"
        }
      ],
      "name": "isApprovedForAll",
      "outputs": [
        {
          "internalType": "bool",
          "name": "",
          "type": "bool"
        }
      ],
      "stateMutability": "view",
      "type": "function"
    },
    {
      "inputs": [],
      "name": "name",
      "outputs": [
        {
          "internalType": "string",
          "name": "",
          "type": "string"
        }
      ],
      "stateMutability": "view",
      "type": "function"
    },
    {
      "inputs": [
        {
          "internalType": "address",
          "name": "user",
          "type": "address"
        }
      ],
      "name": "numMinted",
      "outputs": [
        {
          "internalType": "uint256",
          "name": "",
          "type": "uint256"
        }
      ],
      "stateMutability": "view",
      "type": "function"
    },
    {
      "inputs": [
        {
          "internalType": "address",
          "name": "user",
          "type": "address"
        }
      ],
      "name": "numOwned",
      "outputs": [
        {
          "internalType": "uint256",
          "name": "",
          "type": "uint256"
        }
      ],
      "stateMutability": "view",
      "type": "function"
    },
    {
      "inputs": [
        {
          "internalType": "address",
          "name": "user",
          "type": "address"
        }
      ],
      "name": "numStaked",
      "outputs": [
        {
          "internalType": "uint256",
          "name": "",
          "type": "uint256"
        }
      ],
      "stateMutability": "view",
      "type": "function"
    },
    {
      "inputs": [],
      "name": "numWords",
      "outputs": [
        {
          "internalType": "uint32",
          "name": "",
          "type": "uint32"
        }
      ],
      "stateMutability": "view",
      "type": "function"
    },
    {
      "inputs": [],
      "name": "owner",
      "outputs": [
        {
          "internalType": "address",
          "name": "",
          "type": "address"
        }
      ],
      "stateMutability": "view",
      "type": "function"
    },
    {
      "inputs": [
        {
          "internalType": "uint256",
          "name": "tokenId",
          "type": "uint256"
        }
      ],
      "name": "ownerOf",
      "outputs": [
        {
          "internalType": "address",
          "name": "",
          "type": "address"
        }
      ],
      "stateMutability": "view",
      "type": "function"
    },
    {
      "inputs": [
        {
          "internalType": "uint256",
          "name": "requestId",
          "type": "uint256"
        },
        {
          "internalType": "uint256[]",
          "name": "randomWords",
          "type": "uint256[]"
        }
      ],
      "name": "rawFulfillRandomWords",
      "outputs": [],
      "stateMutability": "nonpayable",
      "type": "function"
    },
    {
      "inputs": [],
      "name": "renounceOwnership",
      "outputs": [],
      "stateMutability": "nonpayable",
      "type": "function"
    },
    {
      "inputs": [],
      "name": "requestRandomWords",
      "outputs": [],
      "stateMutability": "nonpayable",
      "type": "function"
    },
    {
      "inputs": [
        {
          "internalType": "uint256",
          "name": "cycle",
          "type": "uint256"
        },
        {
          "internalType": "uint256",
          "name": "tokenId",
          "type": "uint256"
        }
      ],
      "name": "rewardClaimed",
      "outputs": [
        {
          "internalType": "bool",
          "name": "",
          "type": "bool"
        }
      ],
      "stateMutability": "view",
      "type": "function"
    },
    {
      "inputs": [
        {
          "internalType": "uint256",
          "name": "cycle",
          "type": "uint256"
        },
        {
          "internalType": "uint256",
          "name": "tokenId",
          "type": "uint256"
        }
      ],
      "name": "rewardEarned",
      "outputs": [
        {
          "internalType": "bool",
          "name": "",
          "type": "bool"
        }
      ],
      "stateMutability": "view",
      "type": "function"
    },
    {
      "inputs": [],
      "name": "s_requestId",
      "outputs": [
        {
          "internalType": "uint256",
          "name": "",
          "type": "uint256"
        }
      ],
      "stateMutability": "view",
      "type": "function"
    },
    {
      "inputs": [
        {
          "internalType": "address",
          "name": "from",
          "type": "address"
        },
        {
          "internalType": "address",
          "name": "to",
          "type": "address"
        },
        {
          "internalType": "uint256",
          "name": "tokenId",
          "type": "uint256"
        }
      ],
      "name": "safeTransferFrom",
      "outputs": [],
      "stateMutability": "nonpayable",
      "type": "function"
    },
    {
      "inputs": [
        {
          "internalType": "address",
          "name": "from",
          "type": "address"
        },
        {
          "internalType": "address",
          "name": "to",
          "type": "address"
        },
        {
          "internalType": "uint256",
          "name": "tokenId",
          "type": "uint256"
        },
        {
          "internalType": "bytes",
          "name": "data",
          "type": "bytes"
        }
      ],
      "name": "safeTransferFrom",
      "outputs": [],
      "stateMutability": "nonpayable",
      "type": "function"
    },
    {
      "inputs": [
        {
          "internalType": "address",
          "name": "operator",
          "type": "address"
        },
        {
          "internalType": "bool",
          "name": "approved",
          "type": "bool"
        }
      ],
      "name": "setApprovalForAll",
      "outputs": [],
      "stateMutability": "nonpayable",
      "type": "function"
    },
    {
      "inputs": [
        {
          "internalType": "string",
          "name": "uri",
          "type": "string"
        }
      ],
      "name": "setBaseURI",
      "outputs": [],
      "stateMutability": "nonpayable",
      "type": "function"
    },
    {
      "inputs": [
        {
          "internalType": "address",
          "name": "box",
          "type": "address"
        }
      ],
      "name": "setBoxContract",
      "outputs": [],
      "stateMutability": "nonpayable",
      "type": "function"
    },
    {
      "inputs": [
        {
          "internalType": "uint256",
          "name": "_time",
          "type": "uint256"
        }
      ],
      "name": "setCycleLength",
      "outputs": [],
      "stateMutability": "nonpayable",
      "type": "function"
    },
    {
      "inputs": [
        {
          "internalType": "uint256",
          "name": "cycle",
          "type": "uint256"
        },
        {
          "internalType": "uint256",
          "name": "seed",
          "type": "uint256"
        }
      ],
      "name": "setCycleSeed",
      "outputs": [],
      "stateMutability": "nonpayable",
      "type": "function"
    },
    {
      "inputs": [
        {
          "internalType": "uint32",
          "name": "_limit",
          "type": "uint32"
        }
      ],
      "name": "setGasLimit",
      "outputs": [],
      "stateMutability": "nonpayable",
      "type": "function"
    },
    {
      "inputs": [
        {
          "internalType": "uint32",
          "name": "_num",
          "type": "uint32"
        }
      ],
      "name": "setNumWords",
      "outputs": [],
      "stateMutability": "nonpayable",
      "type": "function"
    },
    {
      "inputs": [
        {
          "internalType": "address",
          "name": "vial",
          "type": "address"
        }
      ],
      "name": "setVialContract",
      "outputs": [],
      "stateMutability": "nonpayable",
      "type": "function"
    },
    {
      "inputs": [
        {
          "internalType": "uint256[]",
          "name": "tokenIds",
          "type": "uint256[]"
        }
      ],
      "name": "stake",
      "outputs": [],
      "stateMutability": "payable",
      "type": "function"
    },
    {
      "inputs": [
        {
          "internalType": "uint40",
          "name": "timestamp",
          "type": "uint40"
        }
      ],
      "name": "startNextCycle",
      "outputs": [],
      "stateMutability": "nonpayable",
      "type": "function"
    },
    {
      "inputs": [
        {
          "internalType": "bytes4",
          "name": "interfaceId",
          "type": "bytes4"
        }
      ],
      "name": "supportsInterface",
      "outputs": [
        {
          "internalType": "bool",
          "name": "",
          "type": "bool"
        }
      ],
      "stateMutability": "view",
      "type": "function"
    },
    {
      "inputs": [],
      "name": "symbol",
      "outputs": [
        {
          "internalType": "string",
          "name": "",
          "type": "string"
        }
      ],
      "stateMutability": "view",
      "type": "function"
    },
    {
      "inputs": [],
      "name": "toggleActive",
      "outputs": [],
      "stateMutability": "nonpayable",
      "type": "function"
    },
    {
      "inputs": [
        {
          "internalType": "address",
          "name": "user",
          "type": "address"
        },
        {
          "internalType": "uint256",
          "name": "type_",
          "type": "uint256"
        }
      ],
      "name": "tokenIdsOf",
      "outputs": [
        {
          "internalType": "uint256[]",
          "name": "",
          "type": "uint256[]"
        }
      ],
      "stateMutability": "view",
      "type": "function"
    },
    {
      "inputs": [
        {
          "internalType": "uint256",
          "name": "tokenId",
          "type": "uint256"
        }
      ],
      "name": "tokenURI",
      "outputs": [
        {
          "internalType": "string",
          "name": "",
          "type": "string"
        }
      ],
      "stateMutability": "view",
      "type": "function"
    },
    {
      "inputs": [],
      "name": "totalNumStaked",
      "outputs": [
        {
          "internalType": "uint256",
          "name": "",
          "type": "uint256"
        }
      ],
      "stateMutability": "view",
      "type": "function"
    },
    {
      "inputs": [],
      "name": "totalSupply",
      "outputs": [
        {
          "internalType": "uint256",
          "name": "",
          "type": "uint256"
        }
      ],
      "stateMutability": "view",
      "type": "function"
    },
    {
      "inputs": [
        {
          "internalType": "address",
          "name": "from",
          "type": "address"
        },
        {
          "internalType": "address",
          "name": "to",
          "type": "address"
        },
        {
          "internalType": "uint256",
          "name": "tokenId",
          "type": "uint256"
        }
      ],
      "name": "transferFrom",
      "outputs": [],
      "stateMutability": "nonpayable",
      "type": "function"
    },
    {
      "inputs": [
        {
          "internalType": "address",
          "name": "newOwner",
          "type": "address"
        }
      ],
      "name": "transferOwnership",
      "outputs": [],
      "stateMutability": "nonpayable",
      "type": "function"
    },
    {
      "inputs": [
        {
          "internalType": "uint256",
          "name": "tokenId",
          "type": "uint256"
        }
      ],
      "name": "trueOwnerOf",
      "outputs": [
        {
          "internalType": "address",
          "name": "",
          "type": "address"
        }
      ],
      "stateMutability": "view",
      "type": "function"
    },
    {
      "inputs": [
        {
          "internalType": "uint256[]",
          "name": "tokenIds",
          "type": "uint256[]"
        }
      ],
      "name": "unstake",
      "outputs": [],
      "stateMutability": "payable",
      "type": "function"
    },
    {
      "inputs": [],
      "name": "vialContract",
      "outputs": [
        {
          "internalType": "contract IVial",
          "name": "",
          "type": "address"
        }
      ],
      "stateMutability": "view",
      "type": "function"
    }
  ],
  "bytecode": {
    "object": "0x62127500600d5561016060405260366101008181529062003ad96101203980516200003391600e9160209091019062000253565b50601180546001600160a01b031916736168499c0cffcacd319c818142124b7a15e857ab1790557fd89b2bf150e3b9e13446986e571fb9cab24b13cea0a43ea20a6049a85cc807cc6012556013805466010003000186a06001600160501b0319909116179055348015620000a657600080fd5b5060405162003b0f38038062003b0f833981016040819052620000c99162000316565b601154604080518082018252601481527f42696c6c696f6e616972652042616d62696e6f73000000000000000000000000602080830191825283518085019094526002845261212160f11b9084015281516001600160a01b0390941693919291600191611f4091600a918a916200014291869162000253565b5084516200015890600290602088019062000253565b5060a09290925260c052608091909152600080546001600160a01b0319166001600160a01b03909216919091179055506200019c9050620001963390565b62000201565b6001600c556001600160a01b0390811660e052600f805493821661010002610100600160a81b031990941693909317909255601154601080546001600160401b03909316600160a01b026001600160e01b0319909316919093161717905550620003ac565b600b80546001600160a01b038381166001600160a01b0319831681179093556040519116919082907f8be0079c531659141344cd1fd0a4f28419497f9722a3daafe3b4186f6b6457e090600090a35050565b828054620002619062000370565b90600052602060002090601f016020900481019282620002855760008555620002d0565b82601f10620002a057805160ff1916838001178555620002d0565b82800160010185558215620002d0579182015b82811115620002d0578251825591602001919060010190620002b3565b50620002de929150620002e2565b5090565b5b80821115620002de5760008155600101620002e3565b80516001600160a01b03811681146200031157600080fd5b919050565b6000806000606084860312156200032c57600080fd5b6200033784620002f9565b92506200034760208501620002f9565b60408501519092506001600160401b03811681146200036557600080fd5b809150509250925092565b600181811c908216806200038557607f821691505b602082108103620003a657634e487b7160e01b600052602260045260246000fd5b50919050565b60805160a05160c05160e0516136c26200041760003960008181610c690152610cab015260006124b7015260006124740152600081816115270152818161154c01528181611bd401528181611bf6015281816121fd0152818161222e015261241301526136c26000f3fe6080604052600436106102ae5760003560e01c80637168fcea11610175578063b88d4fde116100dc578063e89e106a11610095578063eac471a01161006f578063eac471a014610900578063f2fde38b14610916578063f30c07d314610936578063f6a46a5c1461095657600080fd5b8063e89e106a1461088f578063e985e9c5146108a5578063ea125133146108e057600080fd5b8063b88d4fde146107e4578063bab2f55214610804578063c87b56dd1461081a578063c9be651b1461083a578063e0c8628914610867578063e449f3411461087c57600080fd5b80638da5cb5b1161012e5780638da5cb5b1461073e57806395d89b411461075c578063a175ec9414610771578063a22cb46514610791578063a66feaa1146107b1578063ae169a50146107d157600080fd5b80637168fcea1461068557806372a259f8146106a55780637ccfd7fc146106c557806388486f86146106e9578063895d220614610709578063898facd61461071e57600080fd5b806323b872dd1161021957806355f804b3116101d257806355f804b3146105855780636352211e146105a55780636c0360eb146105c55780636c08c6b1146105da57806370a0823114610650578063715018a61461067057600080fd5b806323b872dd146104be57806324f74697146104de57806329c68dc1146105105780633d84ceca1461052557806342842e0e1461054557806352d84c621461056557600080fd5b80630fbf0a931161026b5780630fbf0a93146103ec578063157ea1c6146103ff57806318160ddd1461041f5780631c63c7d6146104355780631fe543e31461045a57806320fc7eb21461047a57600080fd5b806301ffc9a7146102b357806304b9b9ea146102e857806306fdde0314610320578063081812fc1461034257806308ee0c7414610378578063095ea7b3146103ca575b600080fd5b3480156102bf57600080fd5b506102d36102ce366004612dd8565b610976565b60405190151581526020015b60405180910390f35b3480156102f457600080fd5b50600054610308906001600160a01b031681565b6040516001600160a01b0390911681526020016102df565b34801561032c57600080fd5b506103356109c8565b6040516102df9190612e4d565b34801561034e57600080fd5b5061030861035d366004612e60565b6003602052600090815260409020546001600160a01b031681565b34801561038457600080fd5b506103bc610393366004612e95565b6001600160a01b0316600090815260086020526040902054600160781b900464ffffffffff1690565b6040519081526020016102df565b3480156103d657600080fd5b506103ea6103e5366004612eb0565b610a56565b005b6103ea6103fa366004612eda565b610b2a565b34801561040b57600080fd5b506102d361041a366004612f4f565b610c4b565b34801561042b57600080fd5b506103bc60055481565b34801561044157600080fd5b50600f546103089061010090046001600160a01b031681565b34801561046657600080fd5b506103ea610475366004613038565b610c5e565b34801561048657600080fd5b506103bc610495366004612e95565b6001600160a01b0316600090815260086020526040902054600160501b900464ffffffffff1690565b3480156104ca57600080fd5b506103ea6104d936600461307f565b610ceb565b3480156104ea57600080fd5b506013546104fb9063ffffffff1681565b60405163ffffffff90911681526020016102df565b34801561051c57600080fd5b506103ea6111bf565b34801561053157600080fd5b506103ea610540366004612e60565b6111fd565b34801561055157600080fd5b506103ea61056036600461307f565b61122c565b34801561057157600080fd5b506103ea6105803660046130bb565b611247565b34801561059157600080fd5b506103ea6105a0366004613139565b61128d565b3480156105b157600080fd5b506103086105c0366004612e60565b6112ca565b3480156105d157600080fd5b506103356112f0565b3480156105e657600080fd5b506105fa6105f5366004612e60565b6112fd565b6040805182516001600160a01b0316815260208084015164ffffffffff9081169183019190915283830151169181019190915260608083015115159082015260809182015115159181019190915260a0016102df565b34801561065c57600080fd5b506103bc61066b366004612e95565b611406565b34801561067c57600080fd5b506103ea611452565b34801561069157600080fd5b506103bc6106a0366004612e95565b611488565b3480156106b157600080fd5b506102d36106c0366004612f4f565b611504565b3480156106d157600080fd5b506013546104fb90600160301b900463ffffffff1681565b3480156106f557600080fd5b50610308610704366004612e60565b611510565b34801561071557600080fd5b506103bc611522565b34801561072a57600080fd5b506103ea610739366004613182565b61159a565b34801561074a57600080fd5b50600b546001600160a01b0316610308565b34801561076857600080fd5b50610335611720565b34801561077d57600080fd5b506103ea61078c366004612e95565b61172d565b34801561079d57600080fd5b506103ea6107ac3660046131a9565b611779565b3480156107bd57600080fd5b506103ea6107cc3660046131e5565b6117e5565b6103ea6107df366004612e60565b61189f565b3480156107f057600080fd5b506103ea6107ff36600461321a565b6118a8565b34801561081057600080fd5b506103bc60065481565b34801561082657600080fd5b50610335610835366004612e60565b61196f565b34801561084657600080fd5b5061085a610855366004612eb0565b611a3a565b6040516102df91906132d1565b34801561087357600080fd5b506103ea611ccc565b6103ea61088a366004612eda565b611db3565b34801561089b57600080fd5b506103bc60145481565b3480156108b157600080fd5b506102d36108c03660046132e4565b600460209081526000928352604080842090915290825290205460ff1681565b3480156108ec57600080fd5b506103ea6108fb366004612f4f565b611e49565b34801561090c57600080fd5b506103bc600d5481565b34801561092257600080fd5b506103ea610931366004612e95565b611e85565b34801561094257600080fd5b506103ea6109513660046130bb565b611f1d565b34801561096257600080fd5b506103ea610971366004612e95565b611f70565b60006301ffc9a760e01b6001600160e01b0319831614806109a757506380ac58cd60e01b6001600160e01b03198316145b806109c25750635b5e139f60e01b6001600160e01b03198316145b92915050565b600180546109d590613317565b80601f0160208091040260200160405190810160405280929190818152602001828054610a0190613317565b8015610a4e5780601f10610a2357610100808354040283529160200191610a4e565b820191906000526020600020905b815481529060010190602001808311610a3157829003601f168201915b505050505081565b6000610a61826112fd565b8051909150336001600160a01b03821614801590610aa357506001600160a01b038116600090815260046020908152604080832033845290915290205460ff16155b80610aaf575081606001515b15610acd576040516327da82d560e11b815260040160405180910390fd5b60008381526003602052604080822080546001600160a01b0319166001600160a01b0388811691821790925591518693918516917f8c5be1e5ebec7d5bd14f71427d1e84f3dd0314c0f7b2291e5b200ac8c7c3b92591a450505050565b3360009081526008602090815260408083208151608081018352905464ffffffffff8082168352600160281b8204811694830194909452600160501b8104841692820192909252600160781b9091049091166060820152905b82811015610bc057610bae33858584818110610ba157610ba161334b565b9050602002013584611fc2565b9150610bb981613377565b9050610b83565b503360009081526008602090815260409182902083518154928501519385015160609095015164ffffffffff908116600160781b0264ffffffffff60781b19968216600160501b029690961669ffffffffffffffffffff60501b19958216600160281b0269ffffffffffffffffffff1990951691909216179290921792909216179190911790555050565b6000610c57838361215f565b9392505050565b336001600160a01b037f00000000000000000000000000000000000000000000000000000000000000001614610cdd5760405163073e64fd60e21b81523360048201526001600160a01b037f00000000000000000000000000000000000000000000000000000000000000001660248201526044015b60405180910390fd5b610ce782826121c0565b5050565b306001600160a01b03831603610de857336000818152600860209081526040918290208251608081018452905464ffffffffff8082168352600160281b8204811693830193909352600160501b8104831693820193909352600160781b909204166060820152610d5d91908390611fc2565b3360009081526008602090815260409182902083518154928501519385015160609095015164ffffffffff908116600160781b0264ffffffffff60781b19968216600160501b029690961669ffffffffffffffffffff60501b19958216600160281b0269ffffffffffffffffffff199095169190921617929092179290921617919091179055505050565b6000610df3826112fd565b80519091506000336001600160a01b0383161480610e3457506001600160a01b038216600090815260046020908152604080832033845290915290205460ff165b80610e5557506000848152600360205260409020546001600160a01b031633145b905080610e75576040516327da82d560e11b815260040160405180910390fd5b6001600160a01b038516610e9c57604051633a954ecd60e21b815260040160405180910390fd5b856001600160a01b0316826001600160a01b031614158015610ec057508260600151155b15610edd5760405162a1148160e81b815260040160405180910390fd5b600084815260036020526040812080546001600160a01b0319169055610f04856001613390565b600081815260076020908152604091829020825160a08101845290546001600160a01b038116825264ffffffffff600160a01b8204811693830193909352600160c81b81049092169281019290925260ff600160f01b8204811615156060840152600160f81b90910416151560808083019190915286015191925090158015610fa65750600186016000908152600760205260409020546001600160a01b0316155b8015610fb65750610fb6866121f8565b1561105a576001600160a01b038089168252600083815260076020908152604091829020845181549286015193860151606087015160808801511515600160f81b026001600160f81b03911515600160f01b0260ff60f01b1964ffffffffff948516600160c81b021665ffffffffffff60c81b1994909816600160a01b026001600160c81b0319909716949098169390931794909417169390931793909317161790555b6001608086019081526001600160a01b03888116875260008881526007602090815260408083208a518154848d0151848e015160608f015199519389166001600160c81b031990931692909217600160a01b64ffffffffff928316021765ffffffffffff60c81b1916600160c81b9282169290920260ff60f01b191691909117600160f01b98151598909802979097176001600160f81b0316600160f81b91151591909102179055928c168252600890529081208054909216919061111e836133a8565b82546101009290920a64ffffffffff8181021990931691831602179091556001600160a01b038916600090815260086020526040812080549092169250611164836133c9565b91906101000a81548164ffffffffff021916908364ffffffffff1602179055505085876001600160a01b0316896001600160a01b031660008051602061366d83398151915260405160405180910390a450505050505b505050565b600b546001600160a01b031633146111e95760405162461bcd60e51b8152600401610cd4906133ed565b600f805460ff19811660ff90911615179055565b600b546001600160a01b031633146112275760405162461bcd60e51b8152600401610cd4906133ed565b600d55565b6111ba838383604051806020016040528060008152506118a8565b600b546001600160a01b031633146112715760405162461bcd60e51b8152600401610cd4906133ed565b6013805463ffffffff191663ffffffff92909216919091179055565b600b546001600160a01b031633146112b75760405162461bcd60e51b8152600401610cd4906133ed565b8051610ce790600e906020840190612d29565b6000806112d6836112fd565b905080606001516112e8578051610c57565b309392505050565b600e80546109d590613317565b6040805160a081018252600080825260208201819052918101829052606081018290526080810191909152611331826121f8565b61134e5760405163163a09e160e31b815260040160405180910390fd5b815b600081815260076020908152604091829020825160a08101845290546001600160a01b03811680835264ffffffffff600160a01b8304811694840194909452600160c81b82049093169382019390935260ff600160f01b8404811615156060830152600160f81b90930490921615156080830152909250156113f4578083036113d95750919050565b50600060608201819052602082018190526040820152919050565b806113fe81613422565b915050611350565b60006001600160a01b03821661142f5760405163197ce4cd60e31b815260040160405180910390fd5b506001600160a01b031660009081526008602052604090205464ffffffffff1690565b600b546001600160a01b0316331461147c5760405162461bcd60e51b8152600401610cd4906133ed565b611486600061225a565b565b6001600160a01b03811660009081526008602090815260408083208151608081018352905464ffffffffff808216808452600160281b8304821695840195909552600160501b8204811693830193909352600160781b90049091166060820181905290916114f69190613439565b64ffffffffff169392505050565b6000610c5783836122ac565b600061151b826112fd565b5192915050565b6000807f00000000000000000000000000000000000000000000000000000000000000005b6005547f0000000000000000000000000000000000000000000000000000000000000000018110156115945761157c816112fd565b606001511561158c578160010191505b600101611547565b50919050565b600b546001600160a01b031633146115c45760405162461bcd60e51b8152600401610cd4906133ed565b600d546006546000908152600960205260409020546115e39190613390565b42116116315760405162461bcd60e51b815260206004820152601b60248201527f544f4f5f534f4f4e5f544f5f53544152545f4e45575f4359434c4500000000006044820152606401610cd4565b6006546000908152600a60205260409020541515806116505750600654155b61169c5760405162461bcd60e51b815260206004820152601960248201527f52414e444f4d5f534545445f4e4f545f47454e455241544544000000000000006044820152606401610cd4565b428164ffffffffff1610156116ea5760405162461bcd60e51b815260206004820152601460248201527314d510549517d512535157d513d3d7d4d350531360621b6044820152606401610cd4565b6001600660008282546116fd9190613390565b9091555050600654600090815260096020526040902064ffffffffff9091169055565b600280546109d590613317565b600b546001600160a01b031633146117575760405162461bcd60e51b8152600401610cd4906133ed565b600080546001600160a01b0319166001600160a01b0392909216919091179055565b3360008181526004602090815260408083206001600160a01b03871680855290835292819020805460ff191686151590811790915590519081529192917f17307eab39ab6107e8899845ad3d59bd9653f200f220920489ca2b5937696c31910160405180910390a35050565b600f5460ff166118295760405162461bcd60e51b815260206004820152600f60248201526e10d3d395149050d517d4105554d151608a1b6044820152606401610cd4565b600f5460405163ba36b92d60e01b81526101009091046001600160a01b03169063ba36b92d9061185f9033908590600401613462565b600060405180830381600087803b15801561187957600080fd5b505af115801561188d573d6000803e3d6000fd5b5050505061189c3382516123af565b50565b610ce7816126da565b6118b3848484610ceb565b6001600160a01b0383163b1580159061194b5750604051630a85bd0160e11b808252906001600160a01b0385169063150b7a02906118fb903390899088908890600401613486565b6020604051808303816000875af115801561191a573d6000803e3d6000fd5b505050506040513d601f19601f8201168201806040525081019061193e91906134c3565b6001600160e01b03191614155b15611969576040516368d2bf6b60e11b815260040160405180910390fd5b50505050565b606061197a826121f8565b6119de5760405162461bcd60e51b815260206004820152602f60248201527f4552433732314d657461646174613a2055524920717565727920666f72206e6f60448201526e3732bc34b9ba32b73a103a37b5b2b760891b6064820152608401610cd4565b6000600e80546119ed90613317565b905011611a0957604051806020016040528060008152506109c2565b600e611a1483612a9f565b604051602001611a259291906134fc565b60405160208183030381529060405292915050565b606060008215611ae65782600114611aba576040516338b47e7560e11b81526001600160a01b03851660048201523090637168fcea906024015b602060405180830381865afa158015611a91573d6000803e3d6000fd5b505050506040513d601f19601f82011682018060405250810190611ab591906135b6565b611b4e565b60405163023b831d60e21b81526001600160a01b038516600482015230906308ee0c7490602401611a74565b6040516370a0823160e01b81526001600160a01b038516600482015230906370a0823190602401602060405180830381865afa158015611b2a573d6000803e3d6000fd5b505050506040513d601f19601f82011682018060405250810190611b4e91906135b6565b905060008167ffffffffffffffff811115611b6b57611b6b612f71565b604051908082528060200260200182016040528015611b94578160200160208202803683370190505b50905081600003611ba85791506109c29050565b6040805160a08101825260008082526020820181905291810182905260608101829052608081018290527f00000000000000000000000000000000000000000000000000000000000000005b7f000000000000000000000000000000000000000000000000000000000000000060055401811015611cc057611c29816112fd565b915081600001516001600160a01b0316886001600160a01b031603611cb85786158015611c5857508160600151155b80611c6f5750866001148015611c6f575081606001515b80611c7a5750866002145b15611cb85780848480600101955081518110611c9857611c9861334b565b602002602001018181525050828503611cb85783955050505050506109c2565b600101611bf4565b50919695505050505050565b600b546001600160a01b03163314611cf65760405162461bcd60e51b8152600401610cd4906133ed565b6010546012546013546040516305d3b1d360e41b81526004810192909252600160a01b830467ffffffffffffffff166024830152640100000000810461ffff16604483015263ffffffff8082166064840152600160301b9091041660848201526001600160a01b0390911690635d3b1d309060a4016020604051808303816000875af1158015611d8a573d6000803e3d6000fd5b505050506040513d601f19601f82011682018060405250810190611dae91906135b6565b601455565b3360009081526008602090815260408083208151608081018352905464ffffffffff8082168352600160281b8204811694830194909452600160501b8104841692820192909252600160781b9091049091166060820152905b82811015610bc057611e3733858584818110611e2a57611e2a61334b565b9050602002013584612ba8565b9150611e4281613377565b9050611e0c565b600b546001600160a01b03163314611e735760405162461bcd60e51b8152600401610cd4906133ed565b6000918252600a602052604090912055565b600b546001600160a01b03163314611eaf5760405162461bcd60e51b8152600401610cd4906133ed565b6001600160a01b038116611f145760405162461bcd60e51b815260206004820152602660248201527f4f776e61626c653a206e6577206f776e657220697320746865207a65726f206160448201526564647265737360d01b6064820152608401610cd4565b61189c8161225a565b600b546001600160a01b03163314611f475760405162461bcd60e51b8152600401610cd4906133ed565b6013805463ffffffff909216600160301b0269ffffffff00000000000019909216919091179055565b600b546001600160a01b03163314611f9a5760405162461bcd60e51b8152600401610cd4906133ed565b600f80546001600160a01b0390921661010002610100600160a81b0319909216919091179055565b604080516080810182526000808252602082018190529181018290526060810182905290611fef846112fd565b90506064836060015164ffffffffff161061201d57604051634543792f60e11b815260040160405180910390fd5b846001600160a01b031681600001516001600160a01b0316141580612043575080606001515b1561206157604051633a6bbed360e01b815260040160405180910390fd5b600084815260036020908152604080832080546001600160a01b03191690556001606080860182815264ffffffffff4281168887019081528a516000190182168b52928a0180519094018116909352898652600790945282852086518154925188860151965160808a01511515600160f81b026001600160f81b03911515600160f01b0260ff60f01b19998816600160c81b029990991665ffffffffffff60c81b1993909716600160a01b026001600160c81b03199096166001600160a01b03948516179590951791909116949094179590951792909216179055518692309289169160008051602061366d8339815191529190a450909392505050565b600060065483118061216f575082155b1561218d57604051634dc7f5ff60e11b815260040160405180910390fd5b6000612198836112fd565b905083816040015164ffffffffff16106121b65760019150506109c2565b60009150506109c2565b806000815181106121d3576121d361334b565b6020026020010151600a60006006548152602001908152602001600020819055505050565b6000817f0000000000000000000000000000000000000000000000000000000000000000111580156109c25750600554612252907f0000000000000000000000000000000000000000000000000000000000000000613390565b821092915050565b600b80546001600160a01b038381166001600160a01b0319831681179093556040519116919082907f8be0079c531659141344cd1fd0a4f28419497f9722a3daafe3b4186f6b6457e090600090a35050565b6000806122b8836112fd565b90506006548411806122c8575083155b156122e657604051634dc7f5ff60e11b815260040160405180910390fd5b6122ef836121f8565b61230c5760405163163a09e160e31b815260040160405180910390fd5b806020015164ffffffffff1660096000868152602001908152602001600020541080612339575060065484145b156123485760009150506109c2565b6000848152600a60209081526040918290205482519182018190529181018590526004906060016040516020818303038152906040528051906020012060001c61239291906135e5565b6001036123a4576001925050506109c2565b6000925050506109c2565b6005546001600160a01b0383166000818152600860209081526040918290208251608081018452905464ffffffffff8082168352600160281b8204811693830193909352600160501b8104831693820193909352600160781b9092041660608201527f000000000000000000000000000000000000000000000000000000000000000083019161245157604051622e076360e81b815260040160405180910390fd5b836000036124725760405163b562e8dd60e01b815260040160405180910390fd5b7f000000000000000000000000000000000000000000000000000000000000000084840111156124b557604051631dae08e760e31b815260040160405180910390fd5b7f000000000000000000000000000000000000000000000000000000000000000084826040015164ffffffffff16011180156124f15750303b15155b1561250f5760405163d7fac8c760e01b815260040160405180910390fd5b336001600160a01b0386160361253157604081018051850164ffffffffff1690525b6040805160a0810182526001600160a01b0387168152600060208201819052918101829052606081018290526001861460808201528251860164ffffffffff168352905b858110156125ad57604051848201906001600160a01b0389169060009060008051602061366d833981519152908290a4600101612575565b506001600160a01b0395861660009081526008602090815260408083208551815484880151848901516060998a015164ffffffffff908116600160781b0264ffffffffff60781b19928216600160501b029290921669ffffffffffffffffffff60501b19938216600160281b0269ffffffffffffffffffff1990951695821695909517939093179190911692909217919091179091559583526007825291829020835181549285015193850151958501516080909501511515600160f81b026001600160f81b03951515600160f01b0260ff60f01b19978916600160c81b029790971665ffffffffffff60c81b1995909816600160a01b026001600160c81b031990941691909a161791909117919091169390931791909117169390931790925560058054909101905550565b6040805160a08101825260008082526020820181905291810182905260608101829052608081018290529061270e836112fd565b80519091506001600160a01b0316331461273b57604051632e6c18c960e11b815260040160405180910390fd5b806060015161275d57604051632cfe303760e21b815260040160405180910390fd5b6000816040015160016127709190613439565b64ffffffffff1690506006548110612789575092915050565b60008060005b6000848152600960209081526040909120549086015164ffffffffff161080156127ba575060065484105b1561285e576127c984886122ac565b80156127dc57506127da848861215f565b155b15612830576127ec600184613439565b64ffffffffff8086166040880152909350600390821610156128105750600061284c565b61281b6003826135f9565b6128259083613439565b91506000905061284c565b61283a84886122ac565b61284c57612849600182613439565b90505b612857600185613390565b935061278f565b60038164ffffffffff16106128bf576128786003826135f9565b6128829083613439565b915061288f60038261361d565b64ffffffffff1660016006546128a59190613641565b6128af9190613641565b64ffffffffff8116604087015293505b60006128cb8484613439565b905085600760008a815260200190815260200160002060008201518160000160006101000a8154816001600160a01b0302191690836001600160a01b0316021790555060208201518160000160146101000a81548164ffffffffff021916908364ffffffffff16021790555060408201518160000160196101000a81548164ffffffffff021916908364ffffffffff160217905550606082015181600001601e6101000a81548160ff021916908315150217905550608082015181600001601f6101000a81548160ff0219169083151502179055509050508060086000336001600160a01b03166001600160a01b0316815260200190815260200160002060000160058282829054906101000a900464ffffffffff166129eb9190613439565b92506101000a81548164ffffffffff021916908364ffffffffff1602179055508064ffffffffff16600003612a265750939695505050505050565b60005486516040516340c10f1960e01b81526001600160a01b03918216600482015264ffffffffff841660248201529116906340c10f1990604401600060405180830381600087803b158015612a7b57600080fd5b505af1158015612a8f573d6000803e3d6000fd5b50979a9950505050505050505050565b606081600003612ac65750506040805180820190915260018152600360fc1b602082015290565b8160005b8115612af05780612ada81613377565b9150612ae99050600a83613658565b9150612aca565b60008167ffffffffffffffff811115612b0b57612b0b612f71565b6040519080825280601f01601f191660200182016040528015612b35576020820181803683370190505b5090505b8415612ba057612b4a600183613641565b9150612b57600a866135e5565b612b62906030613390565b60f81b818381518110612b7757612b7761334b565b60200101906001600160f81b031916908160001a905350612b99600a86613658565b9450612b39565b949350505050565b604080516080810182526000808252602082018190529181018290526060810182905290612bd5846126da565b9050846001600160a01b031681600001516001600160a01b031614612c0d57604051633a6bbed360e01b815260040160405180910390fd5b8060600151612c2f576040516333155e1360e21b815260040160405180910390fd5b60006060820181815260208084018381528784526007909152604080842085518154935183880151955160808901511515600160f81b026001600160f81b03911515600160f01b0260ff60f01b1964ffffffffff998a16600160c81b021665ffffffffffff60c81b1994909916600160a01b026001600160c81b03199098166001600160a01b039586161797909717929092169690961794909417949094169290921790915551869291881691309160008051602061366d8339815191529190a4825183612cfc826133c9565b64ffffffffff1690525060608301805190612d16826133a8565b64ffffffffff1690525091949350505050565b828054612d3590613317565b90600052602060002090601f016020900481019282612d575760008555612d9d565b82601f10612d7057805160ff1916838001178555612d9d565b82800160010185558215612d9d579182015b82811115612d9d578251825591602001919060010190612d82565b50612da9929150612dad565b5090565b5b80821115612da95760008155600101612dae565b6001600160e01b03198116811461189c57600080fd5b600060208284031215612dea57600080fd5b8135610c5781612dc2565b60005b83811015612e10578181015183820152602001612df8565b838111156119695750506000910152565b60008151808452612e39816020860160208601612df5565b601f01601f19169290920160200192915050565b602081526000610c576020830184612e21565b600060208284031215612e7257600080fd5b5035919050565b80356001600160a01b0381168114612e9057600080fd5b919050565b600060208284031215612ea757600080fd5b610c5782612e79565b60008060408385031215612ec357600080fd5b612ecc83612e79565b946020939093013593505050565b60008060208385031215612eed57600080fd5b823567ffffffffffffffff80821115612f0557600080fd5b818501915085601f830112612f1957600080fd5b813581811115612f2857600080fd5b8660208260051b8501011115612f3d57600080fd5b60209290920196919550909350505050565b60008060408385031215612f6257600080fd5b50508035926020909101359150565b634e487b7160e01b600052604160045260246000fd5b604051601f8201601f1916810167ffffffffffffffff81118282101715612fb057612fb0612f71565b604052919050565b600082601f830112612fc957600080fd5b8135602067ffffffffffffffff821115612fe557612fe5612f71565b8160051b612ff4828201612f87565b928352848101820192828101908785111561300e57600080fd5b83870192505b8483101561302d57823582529183019190830190613014565b979650505050505050565b6000806040838503121561304b57600080fd5b82359150602083013567ffffffffffffffff81111561306957600080fd5b61307585828601612fb8565b9150509250929050565b60008060006060848603121561309457600080fd5b61309d84612e79565b92506130ab60208501612e79565b9150604084013590509250925092565b6000602082840312156130cd57600080fd5b813563ffffffff81168114610c5757600080fd5b600067ffffffffffffffff8311156130fb576130fb612f71565b61310e601f8401601f1916602001612f87565b905082815283838301111561312257600080fd5b828260208301376000602084830101529392505050565b60006020828403121561314b57600080fd5b813567ffffffffffffffff81111561316257600080fd5b8201601f8101841361317357600080fd5b612ba0848235602084016130e1565b60006020828403121561319457600080fd5b813564ffffffffff81168114610c5757600080fd5b600080604083850312156131bc57600080fd5b6131c583612e79565b9150602083013580151581146131da57600080fd5b809150509250929050565b6000602082840312156131f757600080fd5b813567ffffffffffffffff81111561320e57600080fd5b612ba084828501612fb8565b6000806000806080858703121561323057600080fd5b61323985612e79565b935061324760208601612e79565b925060408501359150606085013567ffffffffffffffff81111561326a57600080fd5b8501601f8101871361327b57600080fd5b61328a878235602084016130e1565b91505092959194509250565b600081518084526020808501945080840160005b838110156132c6578151875295820195908201906001016132aa565b509495945050505050565b602081526000610c576020830184613296565b600080604083850312156132f757600080fd5b61330083612e79565b915061330e60208401612e79565b90509250929050565b600181811c9082168061332b57607f821691505b60208210810361159457634e487b7160e01b600052602260045260246000fd5b634e487b7160e01b600052603260045260246000fd5b634e487b7160e01b600052601160045260246000fd5b60006001820161338957613389613361565b5060010190565b600082198211156133a3576133a3613361565b500190565b600064ffffffffff8216806133bf576133bf613361565b6000190192915050565b600064ffffffffff8083168181036133e3576133e3613361565b6001019392505050565b6020808252818101527f4f776e61626c653a2063616c6c6572206973206e6f7420746865206f776e6572604082015260600190565b60008161343157613431613361565b506000190190565b600064ffffffffff80831681851680830382111561345957613459613361565b01949350505050565b6001600160a01b0383168152604060208201819052600090612ba090830184613296565b6001600160a01b03858116825284166020820152604081018390526080606082018190526000906134b990830184612e21565b9695505050505050565b6000602082840312156134d557600080fd5b8151610c5781612dc2565b600081516134f2818560208601612df5565b9290920192915050565b600080845481600182811c91508083168061351857607f831692505b6020808410820361353757634e487b7160e01b86526022600452602486fd5b81801561354b576001811461355c57613589565b60ff19861689528489019650613589565b60008b81526020902060005b868110156135815781548b820152908501908301613568565b505084890196505b5050505050506135ad61359c82866134e0565b64173539b7b760d91b815260050190565b95945050505050565b6000602082840312156135c857600080fd5b5051919050565b634e487b7160e01b600052601260045260246000fd5b6000826135f4576135f46135cf565b500690565b600064ffffffffff80841680613611576136116135cf565b92169190910492915050565b600064ffffffffff80841680613635576136356135cf565b92169190910692915050565b60008282101561365357613653613361565b500390565b600082613667576136676135cf565b50049056feddf252ad1be2c89b69c2b068fc378daa952ba7f163c4a11628f55a4df523b3efa26469706673582212207bcbcb3edba3198a9fe3f3c9a32b0e52f5d95bc6d8df965bba840928a2e8acef64736f6c634300080d0033697066733a2f2f516d52674a756f7a7572794d31577956426436756578667654597553747339507577326d48737451364c654e57652f",
    "linkReferences": {}
  }
}